02RETORNO01COBRANCA       00027242600011196981TELEVISAO CIDADE S.A.         707BANCO DAYCOVAL 07121601600BPI01315                                                                                                                                                                                                                                                                                         000001
1020167374400013000027242600011196981000000000000006400345697567552401            112675524013000005168474 106061216640345697567552401            251116000000000593223704280010000000000000                          000000000000000000000000000000000000000000000000593200000000000000000000000000                                                                                    100000000071216000000002
1020167374400013000027242600011196981000000000000006300322748667809531            112678095318000005192324 106061216630322748667809531            051216000000000838323771380010000000000000                          000000000000000000000000000000000000000000000000838300000000000000000000000000                                                                                    100000000071216000000003
1020167374400013000027242600011196981000000000000007100304264667809605            112678096050000005199760 106061216710304264667809605            051216000000000856123702910010000000000000                          000000000000000000000000000000000000000000000000856100000000000000000000000000                                                                                    100000000071216000000004
1020167374400013000027242600011196981000000000000006100401224567809725            112678097256000005183414 106061216610401224567809725            051216000000000856223730020010000000000000                          000000000000000000000000000000000000000000000000856200000000000000000000000000                                                                                    100000000071216000000005
1020167374400013000027242600011196981000000000000006400346365367837348            112678373483000005260338 106061216640346365367837348            101216000000000599010416410010000000000000                          000000000000000000000000000000000000000000000000599000000000000000000000000000                                                                                    100000000071216000000006
1020167374400013000027242600011196981000000000000006300323132767837499            112678374994000005234280 106061216630323132767837499            101216000000000599010415040010000000000000                          000000000000000000000000000000000000000000000000599000000000000000000000000000                                                                                    100000000071216000000007
1020167374400013000027242600011196981000000000000006300322925567837506            112678375066000005223416 106061216630322925567837506            101216000000000606010440180010000000000000                          000000000000000000000000000000000000000000000000606000000000000000000000000000                                                                                    100000000071216000000008
1020167374400013000027242600011196981000000000000006300323102467837508            112678375082000005232539 106061216630323102467837508            101216000000000699010415040010000000000000                          000000000000000000000000000000000000000000000000699000000000000000000000000000                                                                                    100000000071216000000009
1020167374400013000027242600011196981000000000000006300323206467837632            112678376320000005238316 106061216630323206467837632            101216000000000851034174380010000000000000                          000000000000000000000000000000000000000000000000851000000000000000000000000000                                                                                    100000000071216000000010
1020167374400013000027242600011196981000000000000006100401314567837701            112678377013000005211167 106061216610401314567837701            101216000000001091110401750010000000000000                          000000000000000000000000000000000000000000000001091100000000000000000000000000                                                                                    100000000071216000000011
1020167374400013000027242600011196981000000000000006300323226167837739            112678377393000005239347 106061216630323226167837739            101216000000000438210440180010000000000000                          000000000000000000000000000000000000000000000000438200000000000000000000000000                                                                                    100000000071216000000012
1020167374400013000027242600011196981000000000000006300323129667837868            112678378680000005234108 106061216630323129667837868            101216000000000918110440180010000000000000                          000000000000000000000000000000000000000000000000918100000000000000000000000000                                                                                    100000000071216000000013
1020167374400013000027242600011196981000000000000008200215104767837900            112678379001000005272840 106061216820215104767837900            101216000000000730810404780010000000000000                          000000000000000000000000000000000000000000000000730800000000000000000000000000                                                                                    100000000071216000000014
1020167374400013000027242600011196981000000000000006300323081567837911            112678379118000005231281 106061216630323081567837911            101216000000000625810443750010000000000000                          000000000000000000000000000000000000000000000000625800000000000000000000000000                                                                                    100000000071216000000015
1020167374400013000027242600011196981000000000000006300323268967837919            112678379191000005241589 106061216630323268967837919            101216000000000678010405290010000000000000                          000000000000000000000000000000000000000000000000678000000000000000000000000000                                                                                    100000000071216000000016
1020167374400013000027242600011199792000000000000006200248156666882347            112668823471000005077444 206061216620248156666882347            251016000000000599023700000010000000000000                          000000000000000000000000000000000000000000000000599000000000000000000000000000                                                                                    100000000071216000000017
1020167374400013000027242600011199792000000000000006200248164966882372            112668823729000005077711 206061216620248164966882372            251016000000000529023700000010000000000000                          000000000000000000000000000000000000000000000000529000000000000000000000000000                                                                                    100000000071216000000018
1020167374400013000027242600011199792000000000000006100401156767552871            112675528717000005160260 206061216610401156767552871            251116000000000561423770330010000000000000                          000000000000000000000000000000000000000000000000561400000000000000000000000000                                                                                    100000000071216000000019
1020167374400013000027242600011199792000000000000006300322329567553189            112675531893000005163677 206061216630322329567553189            251116000000000362023704310010000000000000                          000000000000000000000000000000000000000000000000362000000000000000000000000000                                                                                    100000000071216000000020
1020167374400013000027242600011199792000000000000006400345678667553572            11267553572000000516763P 206061216640345678667553572            251116000000002076623738320010000000000000                          000000000000000000000000000000000000000000000002076600000000000000000000000000                                                                                    100000000071216000000021
1020167374400013000027242600011199792000000000000006400345723567553769            112675537692000005169683 206061216640345723567553769            251116000000000726523721800010000000000000                          000000000000000000000000000000000000000000000000726500000000000000000000000000                                                                                    100000000071216000000022
1020167374400013000027242600011199792000000000000007200229713967554269            112675542692000005174865 206061216720229713967554269            251116000000000556723756160010000000000000                          000000000000000000000000000000000000000000000000556700000000000000000000000000                                                                                    100000000071216000000023
1020167374400013000027242600011199792                         67705525            112677055255000010016151 206061216001603    67705525            081216000000003500023733810120000000000000                          000000000000000000000000000000000000000000000003500000000000000000000000000000                                                                                    100000000071216000000024
1020167374400013000027242600011199792000000000000006300322562667783086            112677830863000005179417 206061216630322562667783086            011216000000000591123715920010000000000000                          000000000000000000000000000000000000000000000000591100000000000000000000000000                                                                                    100000000071216000000025
1020167374400013000027242600011199792000000000000006400345898667783175            112677831754000005180415 206061216640345898667783175            011216000000001100013652410010000000000000                          000000000000000000000000000000000000000000000001100000000000000000000000000000                                                                                    100000000071216000000026
1020167374400013000027242600011199792000000000000006400345920367783227            112677832273000005180962 206061216640345920367783227            011216000000000419323715910010000000000000                          000000000000000000000000000000000000000000000000419300000000000000000000000000                                                                                    100000000071216000000027
1020167374400013000027242600011199792000000000000008200215062267783327            112677833271000005182167 206061216820215062267783327            011216000000000784423719790010000000000000                          000000000000000000000000000000000000000000000000784400000000000000000000000000                                                                                    100000000071216000000028
1020167374400013000027242600011199792                         67810087            112678100878000010016216 206061216000418    67810087            081216000000023464023723720120000000000000                          000000000000000000000000000000000000000000000023464000000000000000000000000000                                                                                    100000000071216000000029
1020167374400013000027242600011199792                         67810088            112678100886000010016224 206061216000277    67810088            081216000000083359823723720120000000000000                          000000000000000000000000000000000000000000000083359800000000000000000000000000                                                                                    100000000071216000000030
1020167374400013000027242600011199792                         67810089            112678100894000010016232 206061216001613    67810089            081216000000080395723723720120000000000000                          000000000000000000000000000000000000000000000080395700000000000000000000000000                                                                                    100000000071216000000031
1020167374400013000027242600011199792                         67810090            112678100902000010016240 206061216001037    67810090            081216000000041490623723720120000000000000                          000000000000000000000000000000000000000000000041490600000000000000000000000000                                                                                    100000000071216000000032
1020167374400013000027242600011199792                         67810091            112678100910000010016259 206061216000916    67810091            081216000000003752823723720120000000000000                          000000000000000000000000000000000000000000000003752800000000000000000000000000                                                                                    100000000071216000000033
1020167374400013000027242600011199792                         67810092            112678100928000010016267 206061216000278    67810092            081216000000006200523723720120000000000000                          000000000000000000000000000000000000000000000006200500000000000000000000000000                                                                                    100000000071216000000034
1020167374400013000027242600011199792                         67810093            112678100936000010016275 206061216001614    67810093            081216000000153896223723720120000000000000                          000000000000000000000000000000000000000000000153896200000000000000000000000000                                                                                    100000000071216000000035
1020167374400013000027242600011199792                         67810094            112678100944000010016283 206061216001038    67810094            081216000000025720623723720120000000000000                          000000000000000000000000000000000000000000000025720600000000000000000000000000                                                                                    100000000071216000000036
1020167374400013000027242600011199792                         67810095            112678100951000010016291 206061216000196    67810095            081216000000007409123723720120000000000000                          000000000000000000000000000000000000000000000007409100000000000000000000000000                                                                                    100000000071216000000037
1020167374400013000027242600011199792                         67810096            112678100969000010016305 206061216000419    67810096            081216000000025447023723720120000000000000                          000000000000000000000000000000000000000000000025447000000000000000000000000000                                                                                    100000000071216000000038
1020167374400013000027242600011199792                         67810097            112678100977000010016313 206061216000279    67810097            081216000000015213523723720120000000000000                          000000000000000000000000000000000000000000000015213500000000000000000000000000                                                                                    100000000071216000000039
1020167374400013000027242600011199792                         67810098            112678100985000010016321 206061216001039    67810098            081216000000024792623723720120000000000000                          000000000000000000000000000000000000000000000024792600000000000000000000000000                                                                                    100000000071216000000040
1020167374400013000027242600011199792                         67810100            112678101009000010016348 206061216001615    67810100            081216000000390420723723720120000000000000                          000000000000000000000000000000000000000000000390420700000000000000000000000000                                                                                    100000000071216000000041
1020167374400013000027242600011199792                         67810101            112678101017000010016356 206061216000301    67810101            081216000000373177823723720120000000000000                          000000000000000000000000000000000000000000000373177800000000000000000000000000                                                                                    100000000071216000000042
1020167374400013000027242600011199792000000000000005200330236567810163            112678101637000005183023 206061216520330236567810163            051216000000000667523731620010000000000000                          000000000000000000000000000000000000000000000000667500000000000000000000000000                                                                                    100000000071216000000043
1020167374400013000027242600011199792000000000000006100401228167810214            112678102148000005183627 206061216610401228167810214            051216000000000499023770330010000000000000                          000000000000000000000000000000000000000000000000499000000000000000000000000000                                                                                    100000000071216000000044
1020167374400013000027242600011199792000000000000006100401245667810288            112678102882000005184569 206061216610401245667810288            051216000000000699023728070010000000000000                          000000000000000000000000000000000000000000000000699000000000000000000000000000                                                                                    100000000071216000000045
1020167374400013000027242600011199792000000000000006100401246067810291            112678102916000005184593 206061216610401246067810291            051216000000000575723770410010000000000000                          000000000000000000000000000000000000000000000000575700000000000000000000000000                                                                                    100000000071216000000046
1020167374400013000027242600011199792000000000000006200248662867810326            112678103260000005184976 206061216620248662867810326            051216000000000699023725100010000000000000                          000000000000000000000000000000000000000000000000699000000000000000000000000000                                                                                    100000000071216000000047
1020167374400013000027242600011199792000000000000006200248663167810329            11267810329400000518500P 206061216620248663167810329            051216000000000772723771170010000000000000                          000000000000000000000000000000000000000000000000772700000000000000000000000000                                                                                    100000000071216000000048
1020167374400013000027242600011199792000000000000006200248663267810330            112678103302000005185018 206061216620248663267810330            051216000000000397823766660010000000000000                          000000000000000000000000000000000000000000000000397800000000000000000000000000                                                                                    100000000071216000000049
1020167374400013000027242600011199792000000000000006200248666067810341            112678103419000005185158 206061216620248666067810341            051216000000000709623728090010000000000000                          000000000000000000000000000000000000000000000000709600000000000000000000000000                                                                                    100000000071216000000050
1020167374400013000027242600011199792000000000000006200248666967810344            112678103443000005185190 206061216620248666967810344            051216000000000670123760230010000000000000                          000000000000000000000000000000000000000000000000670100000000000000000000000000                                                                                    100000000071216000000051
1020167374400013000027242600011199792000000000000006200248672367810373            112678103732000005185565 206061216620248672367810373            051216000000000445623711280010000000000000                          000000000000000000000000000000000000000000000000445600000000000000000000000000                                                                                    100000000071216000000052
1020167374400013000027242600011199792000000000000006200248676767810394            112678103948000005185824 206061216620248676767810394            051216000000000557123766660010000000000000                          000000000000000000000000000000000000000000000000557100000000000000000000000000                                                                                    100000000071216000000053
1020167374400013000027242600011199792000000000000006200248682167810419            11267810419300000518612P 206061216620248682167810419            051216000000000773723703090010000000000000                          000000000000000000000000000000000000000000000000773700000000000000000000000000                                                                                    100000000071216000000054
1020167374400013000027242600011199792000000000000006200248683267810421            112678104219000005186154 206061216620248683267810421            051216000000000399723705430010000000000000                          000000000000000000000000000000000000000000000000399700000000000000000000000000                                                                                    100000000071216000000055
1020167374400013000027242600011199792000000000000006200248689967810454            112678104540000005186545 206061216620248689967810454            051216000000001105610401940010000000000000                          000000000000000000000000000000000000000000000001105600000000000000000000000000                                                                                    100000000071216000000056
1020167374400013000027242600011199792000000000000006300322651467810521            112678105216000005187452 206061216630322651467810521            051216000000000568610440180010000000000000                          000000000000000000000000000000000000000000000000568600000000000000000000000000                                                                                    100000000071216000000057
1020167374400013000027242600011199792000000000000006300322695167810713            112678107139000005189625 206061216630322695167810713            051216000000000906823704310010000000000000                          000000000000000000000000000000000000000000000000906800000000000000000000000000                                                                                    100000000071216000000058
1020167374400013000027242600011199792000000000000006300322707967810751            112678107519000005190054 206061216630322707967810751            051216000000000644323713390010000000000000                          000000000000000000000000000000000000000000000000644300000000000000000000000000                                                                                    100000000071216000000059
1020167374400013000027242600011199792000000000000006300322716267810796            112678107964000005190534 206061216630322716267810796            051216000000000808523704310010000000000000                          000000000000000000000000000000000000000000000000808500000000000000000000000000                                                                                    100000000071216000000060
1020167374400013000027242600011199792000000000000006300322718567810806            11267810806100000519064P 206061216630322718567810806            051216000000000441623704310010000000000000                          000000000000000000000000000000000000000000000000441600000000000000000000000000                                                                                    100000000071216000000061
1020167374400013000027242600011199792000000000000006300322721867810819            112678108194000005190801 206061216630322721867810819            051216000000000643323771380010000000000000                          000000000000000000000000000000000000000000000000643300000000000000000000000000                                                                                    100000000071216000000062
1020167374400013000027242600011199792000000000000006300322724867810831            112678108319000005190941 206061216630322724867810831            051216000000000557723704310010000000000000                          000000000000000000000000000000000000000000000000557700000000000000000000000000                                                                                    100000000071216000000063
1020167374400013000027242600011199792000000000000006300322732367810878            11267810878000000519145P 206061216630322732367810878            051216000000000496823728060010000000000000                          000000000000000000000000000000000000000000000000496800000000000000000000000000                                                                                    100000000071216000000064
1020167374400013000027242600011199792000000000000006300322734367810894            112678108947000005191611 206061216630322734367810894            051216000000001227023715920010000000000000                          000000000000000000000000000000000000000000000001227000000000000000000000000000                                                                                    100000000071216000000065
1020167374400013000027242600011199792000000000000006300322749067810955            112678109556000005192359 206061216630322749067810955            051216000000000349023705390010000000000000                          000000000000000000000000000000000000000000000000349000000000000000000000000000                                                                                    100000000071216000000066
1020167374400013000027242600011199792000000000000006300322754267810986            112678109861000005192731 206061216630322754267810986            051216000000000599023713390010000000000000                          000000000000000000000000000000000000000000000000599000000000000000000000000000                                                                                    100000000071216000000067
1020167374400013000027242600011199792000000000000006300322769867811050            112678110505000005193487 206061216630322769867811050            051216000000000599023713390010000000000000                          000000000000000000000000000000000000000000000000599000000000000000000000000000                                                                                    100000000071216000000068
1020167374400013000027242600011199792000000000000006400345972967811170            112678111701000005194807 206061216640345972967811170            051216000000000599023704280010000000000000                          000000000000000000000000000000000000000000000000599000000000000000000000000000                                                                                    100000000071216000000069
1020167374400013000027242600011199792000000000000006400345976767811188            112678111883000005195021 206061216640345976767811188            051216000000000767623721800010000000000000                          000000000000000000000000000000000000000000000000767600000000000000000000000000                                                                                    100000000071216000000070
1020167374400013000027242600011199792000000000000006400345982667811221            112678112212000005195374 206061216640345982667811221            051216000000000599023704280010000000000000                          000000000000000000000000000000000000000000000000599000000000000000000000000000                                                                                    100000000071216000000071
1020167374400013000027242600011199792000000000000006400346017867811379            112678113798000005197180 206061216640346017867811379            051216000000000479023730330010000000000000                          000000000000000000000000000000000000000000000000479000000000000000000000000000                                                                                    100000000071216000000072
1020167374400013000027242600011199792000000000000006400346018467811381            112678113814000005197202 206061216640346018467811381            051216000000000662723721800010000000000000                          000000000000000000000000000000000000000000000000662700000000000000000000000000                                                                                    100000000071216000000073
1020167374400013000027242600011199792000000000000006400346022367811402            112678114028000005197423 206061216640346022367811402            051216000000000449010416410010000000000000                          000000000000000000000000000000000000000000000000449000000000000000000000000000                                                                                    100000000071216000000074
1020167374400013000027242600011199792000000000000006400346034667811462            112678114622000005198098 206061216640346034667811462            051216000000000715923721800010000000000000                          000000000000000000000000000000000000000000000000715900000000000000000000000000                                                                                    100000000071216000000075
1020167374400013000027242600011199792000000000000007100304257667811562            112678115629000005199280 206061216710304257667811562            051216000000000441623739350010000000000000                          000000000000000000000000000000000000000000000000441600000000000000000000000000                                                                                    100000000071216000000076
1020167374400013000027242600011199792000000000000007100304259267811572            112678115728000005199396 206061216710304259267811572            051216000000000851823710550010000000000000                          000000000000000000000000000000000000000000000000851800000000000000000000000000                                                                                    100000000071216000000077
1020167374400013000027242600011199792000000000000007100304259967811577            112678115777000005199442 206061216710304259967811577            051216000000000773423756150010000000000000                          000000000000000000000000000000000000000000000000773400000000000000000000000000                                                                                    100000000071216000000078
1020167374400013000027242600011199792000000000000007100304260467811581            112678115819000005199485 206061216710304260467811581            051216000000000964623732080010000000000000                          000000000000000000000000000000000000000000000000964600000000000000000000000000                                                                                    100000000071216000000079
1020167374400013000027242600011199792000000000000007100304261367811586            11267811586800000519954P 206061216710304261367811586            051216000000000699023712300010000000000000                          000000000000000000000000000000000000000000000000699000000000000000000000000000                                                                                    100000000071216000000080
1020167374400013000027242600011199792000000000000007100304262367811590            112678115900000005199604 206061216710304262367811590            051216000000000552223732060010000000000000                          000000000000000000000000000000000000000000000000552200000000000000000000000000                                                                                    100000000071216000000081
1020167374400013000027242600011199792000000000000007100304271667811636            11267811636100000520019P 206061216710304271667811636            051216000000000773623725600010000000000000                          000000000000000000000000000000000000000000000000773600000000000000000000000000                                                                                    100000000071216000000082
1020167374400013000027242600011199792000000000000007200229735767811644            112678116445000005200319 206061216720229735767811644            051216000000000845623715990010000000000000                          000000000000000000000000000000000000000000000000845600000000000000000000000000                                                                                    100000000071216000000083
1020167374400013000027242600011199792000000000000007200229740167811664            112678116643000005200564 206061216720229740167811664            051216000000001152523720290010000000000000                          000000000000000000000000000000000000000000000001152500000000000000000000000000                                                                                    100000000071216000000084
1020167374400013000027242600011199792000000000000007300235494367811690            112678116908000005200858 206061216730235494367811690            051216000000000749023732010010000000000000                          000000000000000000000000000000000000000000000000749000000000000000000000000000                                                                                    100000000071216000000085
1020167374400013000027242600011199792000000000000008200215086967811854            112678118540000005202931 206061216820215086967811854            051216000000000481010404780010000000000000                          000000000000000000000000000000000000000000000000481000000000000000000000000000                                                                                    100000000071216000000086
1020167374400013000027242600011199792000000000000005200330264067838244            112678382443000005204489 206061216520330264067838244            101216000000000776510424050010000000000000                          000000000000000000000000000000000000000000000000776500000000000000000000000000                                                                                    100000000071216000000087
1020167374400013000027242600011199792000000000000005200330265467838256            112678382567000005204608 206061216520330265467838256            101216000000007446000157710010000000000000                          000000000000000000000000000000000000000000000007446000000000000000000000000000                                                                                    100000000071216000000088
1020167374400013000027242600011199792000000000000005200330267467838269            11267838269000000520473P 206061216520330267467838269            101216000000000444910424050010000000000000                          000000000000000000000000000000000000000000000000444900000000000000000000000000                                                                                    100000000071216000000089
1020167374400013000027242600011199792000000000000005200330273067838305            112678383052000005205094 206061216520330273067838305            101216000000000749404700160010000000000000                          000000000000000000000000000000000000000000000000749400000000000000000000000000                                                                                    100000000071216000000090
1020167374400013000027242600011199792000000000000005200330278767838338            112678383383000005205426 206061216520330278767838338            101216000000000986200116030010000000000000                          000000000000000000000000000000000000000000000000986200000000000000000000000000                                                                                    100000000071216000000091
1020167374400013000027242600011199792000000000000005200330282367838359            112678383599000005205639 206061216520330282367838359            101216000000000488510421860010000000000000                          000000000000000000000000000000000000000000000000488500000000000000000000000000                                                                                    100000000071216000000092
1020167374400013000027242600011199792000000000000005200330290467838401            112678384019000005206058 206061216520330290467838401            101216000000000386234193640010000000000000                          000000000000000000000000000000000000000000000000386200000000000000000000000000                                                                                    100000000071216000000093
1020167374400013000027242600011199792000000000000005200330291367838408            112678384084000005206120 206061216520330291367838408            101216000000000636110423820010000000000000                          000000000000000000000000000000000000000000000000636100000000000000000000000000                                                                                    100000000071216000000094
1020167374400013000027242600011199792000000000000005200330292467838412            112678384126000005206163 206061216520330292467838412            101216000000012216904700340010000000000000                          000000000000000000000000000000000000000000000012216900000000000000000000000000                                                                                    100000000071216000000095
1020167374400013000027242600011199792000000000000005200330301167838469            112678384696000005206732 206061216520330301167838469            101216000000009524404700290010000000000000                          000000000000000000000000000000000000000000000009524400000000000000000000000000                                                                                    100000000071216000000096
1020167374400013000027242600011199792000000000000006100401258967838570            112678385701000005207763 206061216610401258967838570            101216000000000580834171770010000000000000                          000000000000000000000000000000000000000000000000580800000000000000000000000000                                                                                    100000000071216000000097
1020167374400013000027242600011199792000000000000006100401263967838603            112678386030000005208131 206061216610401263967838603            101216000000000556723730020010000000000000                          000000000000000000000000000000000000000000000000556700000000000000000000000000                                                                                    100000000071216000000098
1020167374400013000027242600011199792000000000000006100401269167838636            112678386360000005208506 206061216610401269167838636            101216000000000628903316210010000000000000                          000000000000000000000000000000000000000000000000628900000000000000000000000000                                                                                    100000000071216000000099
1020167374400013000027242600011199792000000000000006100401271667838652            112678386527000005208662 206061216610401271667838652            101216000000000553734174620010000000000000                          000000000000000000000000000000000000000000000000553700000000000000000000000000                                                                                    100000000071216000000100
1020167374400013000027242600011199792000000000000006100401286867838744            112678387442000005209626 206061216610401286867838744            101216000000000834803333960010000000000000                          000000000000000000000000000000000000000000000000834800000000000000000000000000                                                                                    100000000071216000000101
1020167374400013000027242600011199792000000000000006100401289367838760            112678387608000005209782 206061216610401289367838760            101216000000000994034162240010000000000000                          000000000000000000000000000000000000000000000000994000000000000000000000000000                                                                                    100000000071216000000102
1020167374400013000027242600011199792000000000000006100401315067838892            112678388929000005211191 206061216610401315067838892            101216000000000472203333960010000000000000                          000000000000000000000000000000000000000000000000472200000000000000000000000000                                                                                    100000000071216000000103
1020167374400013000027242600011199792000000000000006200248701967838977            112678389778000005212082 206061216620248701967838977            101216000000000599010408890010000000000000                          000000000000000000000000000000000000000000000000599000000000000000000000000000                                                                                    100000000071216000000104
1020167374400013000027242600011199792000000000000006200248702867838986            112678389869000005212171 206061216620248702867838986            101216000000000773610408890010000000000000                          000000000000000000000000000000000000000000000000773600000000000000000000000000                                                                                    100000000071216000000105
1020167374400013000027242600011199792000000000000006200248703767838991            112678389919000005212228 206061216620248703767838991            101216000000000772910408890010000000000000                          000000000000000000000000000000000000000000000000772900000000000000000000000000                                                                                    100000000071216000000106
1020167374400013000027242600011199792000000000000006200248709467839030            112678390305000005212627 206061216620248709467839030            101216000000000598410430930010000000000000                          000000000000000000000000000000000000000000000000598400000000000000000000000000                                                                                    100000000071216000000107
1020167374400013000027242600011199792000000000000006200248743767839239            112678392392000005214859 206061216620248743767839239            101216000000000580834159840010000000000000                          000000000000000000000000000000000000000000000000580800000000000000000000000000                                                                                    100000000071216000000108
1020167374400013000027242600011199792000000000000006200248757867839323            112678393234000005215758 206061216620248757867839323            101216000000000387723705430010000000000000                          000000000000000000000000000000000000000000000000387700000000000000000000000000                                                                                    100000000071216000000109
1020167374400013000027242600011199792000000000000006200248758067839324            112678393242000005215766 206061216620248758067839324            101216000000000665410441430010000000000000                          000000000000000000000000000000000000000000000000665400000000000000000000000000                                                                                    100000000071216000000110
1020167374400013000027242600011199792000000000000006200248781367839451            112678394513000005217076 206061216620248781367839451            101216000000000776500129480010000000000000                          000000000000000000000000000000000000000000000000776500000000000000000000000000                                                                                    100000000071216000000111
1020167374400013000027242600011199792000000000000006200248791567839509            112678395098000005217726 206061216620248791567839509            101216000000000371534102810010000000000000                          000000000000000000000000000000000000000000000000371500000000000000000000000000                                                                                    100000000071216000000112
1020167374400013000027242600011199792000000000000006300322832267839549            112678395494000005218161 206061216630322832267839549            101216000000000457010415040010000000000000                          000000000000000000000000000000000000000000000000457000000000000000000000000000                                                                                    100000000071216000000113
1020167374400013000027242600011199792000000000000006300322833767839555            112678395551000005218250 206061216630322833767839555            101216000000000665410443750010000000000000                          000000000000000000000000000000000000000000000000665400000000000000000000000000                                                                                    100000000071216000000114
1020167374400013000027242600011199792000000000000006300322835567839561            112678395619000005218323 206061216630322835567839561            101216000000000599034193390010000000000000                          000000000000000000000000000000000000000000000000599000000000000000000000000000                                                                                    100000000071216000000115
1020167374400013000027242600011199792000000000000006300322860667839659            112678396591000005219575 206061216630322860667839659            101216000000000997310440180010000000000000                          000000000000000000000000000000000000000000000000997300000000000000000000000000                                                                                    100000000071216000000116
1020167374400013000027242600011199792000000000000006300322861167839660            112678396609000005219583 206061216630322861167839660            101216000000001417500136520010000000000000                          000000000000000000000000000000000000000000000001417500000000000000000000000000                                                                                    100000000071216000000117
1020167374400013000027242600011199792000000000000006300322867767839695            112678396955000005219958 206061216630322867767839695            101216000000000813623771370010000000000000                          000000000000000000000000000000000000000000000000813600000000000000000000000000                                                                                    100000000071216000000118
1020167374400013000027242600011199792000000000000006300322869567839707            112678397078000005220085 206061216630322869567839707            101216000000000532610440180010000000000000                          000000000000000000000000000000000000000000000000532600000000000000000000000000                                                                                    100000000071216000000119
1020167374400013000027242600011199792000000000000006300322873567839730            112678397300000005220328 206061216630322873567839730            101216000000000577134193390010000000000000                          000000000000000000000000000000000000000000000000577100000000000000000000000000                                                                                    100000000071216000000120
1020167374400013000027242600011199792000000000000006300322873667839731            112678397318000005220336 206061216630322873667839731            101216000000000556423713390010000000000000                          000000000000000000000000000000000000000000000000556400000000000000000000000000                                                                                    100000000071216000000121
1020167374400013000027242600011199792000000000000006300322879867839762            112678397623000005220670 206061216630322879867839762            101216000000000975675632600010000000000000                          000000000000000000000000000000000000000000000000975600000000000000000000000000                                                                                    100000000071216000000122
1020167374400013000027242600011199792000000000000006300322892667839828            112678398282000005221413 206061216630322892667839828            101216000000000665410401970010000000000000                          000000000000000000000000000000000000000000000000665400000000000000000000000000                                                                                    100000000071216000000123
1020167374400013000027242600011199792000000000000006300322893367839834            112678398340000005221472 206061216630322893367839834            101216000000000662710415040010000000000000                          000000000000000000000000000000000000000000000000662700000000000000000000000000                                                                                    100000000071216000000124
1020167374400013000027242600011199792000000000000006300322896567839862            112678398621000005221758 206061216630322896567839862            101216000000000603910401760010000000000000                          000000000000000000000000000000000000000000000000603900000000000000000000000000                                                                                    100000000071216000000125
1020167374400013000027242600011199792000000000000006300322905767839904            112678399041000005222266 206061216630322905767839904            101216000000000667910440180010000000000000                          000000000000000000000000000000000000000000000000667900000000000000000000000000                                                                                    100000000071216000000126
1020167374400013000027242600011199792000000000000006300322913467839951            112678399512000005222770 206061216630322913467839951            101216000000000717410440180010000000000000                          000000000000000000000000000000000000000000000000717400000000000000000000000000                                                                                    100000000071216000000127
1020167374400013000027242600011199792000000000000006300322922167839983            11267839983500000522319P 206061216630322922167839983            101216000000000559303333520010000000000000                          000000000000000000000000000000000000000000000000559300000000000000000000000000                                                                                    100000000071216000000128
1020167374400013000027242600011199792000000000000006300322924967839997            112678399975000005223378 206061216630322924967839997            101216000000000349000103060010000000000000                          000000000000000000000000000000000000000000000000349000000000000000000000000000                                                                                    100000000071216000000129
1020167374400013000027242600011199792000000000000006300322929567840019            112678400195000005223645 206061216630322929567840019            101216000000000951610440180010000000000000                          000000000000000000000000000000000000000000000000951600000000000000000000000000                                                                                    100000000071216000000130
1020167374400013000027242600011199792000000000000006300322942767840066            112678400666000005224226 206061216630322942767840066            101216000000000644803301380010000000000000                          000000000000000000000000000000000000000000000000644800000000000000000000000000                                                                                    100000000071216000000131
1020167374400013000027242600011199792000000000000006300322957367840130            112678401300000005224897 206061216630322957367840130            101216000000000556410401760010000000000000                          000000000000000000000000000000000000000000000000556400000000000000000000000000                                                                                    100000000071216000000132
1020167374400013000027242600011199792000000000000006300322963067840159            112678401599000005225206 206061216630322963067840159            101216000000000640400115830010000000000000                          000000000000000000000000000000000000000000000000640400000000000000000000000000                                                                                    100000000071216000000133
1020167374400013000027242600011199792000000000000006300322963167840160            112678401607000005225214 206061216630322963167840160            101216000000000611023771380010000000000000                          000000000000000000000000000000000000000000000000611000000000000000000000000000                                                                                    100000000071216000000134
1020167374400013000027242600011199792000000000000006300322963767840165            112678401656000005225265 206061216630322963767840165            101216000000000466710415040010000000000000                          000000000000000000000000000000000000000000000000466700000000000000000000000000                                                                                    100000000071216000000135
1020167374400013000027242600011199792000000000000006300322965267840174            112678401748000005225354 206061216630322965267840174            101216000000000479010401970010000000000000                          000000000000000000000000000000000000000000000000479000000000000000000000000000                                                                                    100000000071216000000136
1020167374400013000027242600011199792000000000000006300322966467840180            112678401805000005225419 206061216630322966467840180            101216000000000529034199260010000000000000                          000000000000000000000000000000000000000000000000529000000000000000000000000000                                                                                    100000000071216000000137
1020167374400013000027242600011199792000000000000006300322967067840184            112678401847000005225451 206061216630322967067840184            101216000000000574210440180010000000000000                          000000000000000000000000000000000000000000000000574200000000000000000000000000                                                                                    100000000071216000000138
1020167374400013000027242600011199792000000000000006300322969067840190            112678401904000005225524 206061216630322969067840190            101216000000000349023722870010000000000000                          000000000000000000000000000000000000000000000000349000000000000000000000000000                                                                                    100000000071216000000139
1020167374400013000027242600011199792000000000000006300322978567840239            112678402399000005226067 206061216630322978567840239            101216000000000667903301380010000000000000                          000000000000000000000000000000000000000000000000667900000000000000000000000000                                                                                    100000000071216000000140
1020167374400013000027242600011199792000000000000006300322979867840246            11267840246400000522613P 206061216630322979867840246            101216000000000828110401970010000000000000                          000000000000000000000000000000000000000000000000828100000000000000000000000000                                                                                    100000000071216000000141
1020167374400013000027242600011199792000000000000006300322979967840247            112678402472000005226148 206061216630322979967840247            101216000000000595900104690010000000000000                          000000000000000000000000000000000000000000000000595900000000000000000000000000                                                                                    100000000071216000000142
1020167374400013000027242600011199792000000000000006300322986667840277            112678402779000005226474 206061216630322986667840277            101216000000000599010443750010000000000000                          000000000000000000000000000000000000000000000000599000000000000000000000000000                                                                                    100000000071216000000143
1020167374400013000027242600011199792000000000000006300323010967840392            112678403926000005227748 206061216630323010967840392            101216000000000684703333520010000000000000                          000000000000000000000000000000000000000000000000684700000000000000000000000000                                                                                    100000000071216000000144
1020167374400013000027242600011199792000000000000006300323011167840393            112678403934000005227756 206061216630323011167840393            101216000000000496803333520010000000000000                          000000000000000000000000000000000000000000000000496800000000000000000000000000                                                                                    100000000071216000000145
1020167374400013000027242600011199792000000000000006300323061567840608            112678406085000005230455 206061216630323061567840608            101216000000000500634162620010000000000000                          000000000000000000000000000000000000000000000000500600000000000000000000000000                                                                                    100000000071216000000146
1020167374400013000027242600011199792000000000000006300323066367840620            112678406200000005230617 206061216630323066367840620            101216000000000662710415040010000000000000                          000000000000000000000000000000000000000000000000662700000000000000000000000000                                                                                    100000000071216000000147
1020167374400013000027242600011199792000000000000006300323073667840640            112678406408000005230889 206061216630323073667840640            101216000000000749034161830010000000000000                          000000000000000000000000000000000000000000000000749000000000000000000000000000                                                                                    100000000071216000000148
1020167374400013000027242600011199792000000000000006300323115167840846            11267840846100000523325P 206061216630323115167840846            101216000000000449003333520010000000000000                          000000000000000000000000000000000000000000000000449000000000000000000000000000                                                                                    100000000071216000000149
1020167374400013000027242600011199792000000000000006300323128967840921            11267840921200000523406P 206061216630323128967840921            101216000000000599010443750010000000000000                          000000000000000000000000000000000000000000000000599000000000000000000000000000                                                                                    100000000071216000000150
1020167374400013000027242600011199792000000000000006300323151067841037            112678410376000005235341 206061216630323151067841037            101216000000000598403333520010000000000000                          000000000000000000000000000000000000000000000000598400000000000000000000000000                                                                                    100000000071216000000151
1020167374400013000027242600011199792000000000000006300323156167841055            112678410558000005235538 206061216630323156167841055            101216000000000399003333520010000000000000                          000000000000000000000000000000000000000000000000399000000000000000000000000000                                                                                    100000000071216000000152
1020167374400013000027242600011199792000000000000006300323166067841092            112678410921000005235937 206061216630323166067841092            101216000000000640410443750010000000000000                          000000000000000000000000000000000000000000000000640400000000000000000000000000                                                                                    100000000071216000000153
1020167374400013000027242600011199792000000000000006300323169067841102            112678411028000005236062 206061216630323169067841102            101216000000000599034191580010000000000000                          000000000000000000000000000000000000000000000000599000000000000000000000000000                                                                                    100000000071216000000154
1020167374400013000027242600011199792000000000000006300323170967841114            112678411143000005236186 206061216630323170967841114            101216000000000776534153820010000000000000                          000000000000000000000000000000000000000000000000776500000000000000000000000000                                                                                    100000000071216000000155
1020167374400013000027242600011199792000000000000006300323174767841131            112678411317000005236380 206061216630323174767841131            101216000000000662934161830010000000000000                          000000000000000000000000000000000000000000000000662900000000000000000000000000                                                                                    100000000071216000000156
1020167374400013000027242600011199792000000000000006300323194067841239            112678412398000005237603 206061216630323194067841239            101216000000000509410415040010000000000000                          000000000000000000000000000000000000000000000000509400000000000000000000000000                                                                                    100000000071216000000157
1020167374400013000027242600011199792000000000000006300323197967841259            112678412596000005237832 206061216630323197967841259            101216000000000574210415040010000000000000                          000000000000000000000000000000000000000000000000574200000000000000000000000000                                                                                    100000000071216000000158
1020167374400013000027242600011199792000000000000006300323209367841303            112678413032000005238421 206061216630323209367841303            101216000000000399010401970010000000000000                          000000000000000000000000000000000000000000000000399000000000000000000000000000                                                                                    100000000071216000000159
1020167374400013000027242600011199792000000000000006300323213867841316            11267841316400000523860P 206061216630323213867841316            101216000000000699034174380010000000000000                          000000000000000000000000000000000000000000000000699000000000000000000000000000                                                                                    100000000071216000000160
1020167374400013000027242600011199792000000000000006300323215967841327            112678413271000005238715 206061216630323215967841327            101216000000000449003333520010000000000000                          000000000000000000000000000000000000000000000000449000000000000000000000000000                                                                                    100000000071216000000161
1020167374400013000027242600011199792000000000000006300323266867841570            112678415706000005241465 206061216630323266867841570            101216000000000712500129220010000000000000                          000000000000000000000000000000000000000000000000712500000000000000000000000000                                                                                    100000000071216000000162
1020167374400013000027242600011199792000000000000006300323267567841574            112678415748000005241503 206061216630323267567841574            101216000000000834803333440010000000000000                          000000000000000000000000000000000000000000000000834800000000000000000000000000                                                                                    100000000071216000000163
1020167374400013000027242600011199792000000000000006300323272167841598            112678415987000005241791 206061216630323272167841598            101216000000000537110443750010000000000000                          000000000000000000000000000000000000000000000000537100000000000000000000000000                                                                                    100000000071216000000164
1020167374400013000027242600011199792000000000000006300323273267841602            112678416027000005241856 206061216630323273267841602            101216000000001155434174380010000000000000                          000000000000000000000000000000000000000000000001155400000000000000000000000000                                                                                    100000000071216000000165
1020167374400013000027242600011199792000000000000006400346085767841743            112678417439000005243425 206061216640346085767841743            101216000000000529010430290010000000000000                          000000000000000000000000000000000000000000000000529000000000000000000000000000                                                                                    100000000071216000000166
1020167374400013000027242600011199792000000000000006400346180867842249            112678422496000005248990 206061216640346180867842249            101216000000000662910401260010000000000000                          000000000000000000000000000000000000000000000000662900000000000000000000000000                                                                                    100000000071216000000167
1020167374400013000027242600011199792000000000000006400346202867842376            112678423767000005250340 206061216640346202867842376            101216000000000598423721800010000000000000                          000000000000000000000000000000000000000000000000598400000000000000000000000000                                                                                    100000000071216000000168
1020167374400013000027242600011199792000000000000006400346208067842410            112678424104000005250723 206061216640346208067842410            101216000000000449034149800010000000000000                          000000000000000000000000000000000000000000000000449000000000000000000000000000                                                                                    100000000071216000000169
1020167374400013000027242600011199792000000000000006400346214267842447            112678424476000005251126 206061216640346214267842447            101216000000000479010425190010000000000000                          000000000000000000000000000000000000000000000000479000000000000000000000000000                                                                                    100000000071216000000170
1020167374400013000027242600011199792000000000000006400346219167842470            112678424708000005251355 206061216640346219167842470            101216000000000599010436960010000000000000                          000000000000000000000000000000000000000000000000599000000000000000000000000000                                                                                    100000000071216000000171
1020167374400013000027242600011199792000000000000006400346220567842479            112678424799000005251452 206061216640346220567842479            101216000000000599010401260010000000000000                          000000000000000000000000000000000000000000000000599000000000000000000000000000                                                                                    100000000071216000000172
1020167374400013000027242600011199792000000000000006400346222267842491            112678424914000005251576 206061216640346222267842491            101216000000000649010406080010000000000000                          000000000000000000000000000000000000000000000000649000000000000000000000000000                                                                                    100000000071216000000173
1020167374400013000027242600011199792000000000000006400346273367842774            112678427743000005254621 206061216640346273367842774            101216000000000556734103520010000000000000                          000000000000000000000000000000000000000000000000556700000000000000000000000000                                                                                    100000000071216000000174
1020167374400013000027242600011199792000000000000006400346274167842779            112678427792000005254680 206061216640346274167842779            101216000000000592834131220010000000000000                          000000000000000000000000000000000000000000000000592800000000000000000000000000                                                                                    100000000071216000000175
1020167374400013000027242600011199792000000000000006400346274567842783            112678427834000005254729 206061216640346274567842783            101216000000000699000132050010000000000000                          000000000000000000000000000000000000000000000000699000000000000000000000000000                                                                                    100000000071216000000176
1020167374400013000027242600011199792000000000000006400346304767842960            112678429608000005256624 206061216640346304767842960            101216000000000996200103640010000000000000                          000000000000000000000000000000000000000000000000996200000000000000000000000000                                                                                    100000000071216000000177
1020167374400013000027242600011199792000000000000006400346305467842964            112678429640000005256675 206061216640346305467842964            101216000000000429010424190010000000000000                          000000000000000000000000000000000000000000000000429000000000000000000000000000                                                                                    100000000071216000000178
1020167374400013000027242600011199792000000000000006400346337367843133            112678431331000005258554 206061216640346337367843133            101216000000000884334131720010000000000000                          000000000000000000000000000000000000000000000000884300000000000000000000000000                                                                                    100000000071216000000179
1020167374400013000027242600011199792000000000000006400346348267843191            112678431919000005259216 206061216640346348267843191            101216000000000814910436960010000000000000                          000000000000000000000000000000000000000000000000814900000000000000000000000000                                                                                    100000000071216000000180
1020167374400013000027242600011199792000000000000006400346349567843196            112678431968000005259275 206061216640346349567843196            101216000000000662910436960010000000000000                          000000000000000000000000000000000000000000000000662900000000000000000000000000                                                                                    100000000071216000000181
1020167374400013000027242600011199792000000000000006400346373667843342            112678433428000005260850 206061216640346373667843342            101216000000001293423730330010000000000000                          000000000000000000000000000000000000000000000001293400000000000000000000000000                                                                                    100000000071216000000182
1020167374400013000027242600011199792000000000000006400346400267843501            112678435019000005262594 206061216640346400267843501            101216000000000349010435410010000000000000                          000000000000000000000000000000000000000000000000349000000000000000000000000000                                                                                    100000000071216000000183
1020167374400013000027242600011199792000000000000007100304279067843624            112678436249000005263930 206061216710304279067843624            101216000000000429010410300010000000000000                          000000000000000000000000000000000000000000000000429000000000000000000000000000                                                                                    100000000071216000000184
1020167374400013000027242600011199792000000000000007100304282867843645            112678436454000005264155 206061216710304282867843645            101216000000000814900148440010000000000000                          000000000000000000000000000000000000000000000000814900000000000000000000000000                                                                                    100000000071216000000185
1020167374400013000027242600011199792000000000000007100304288067843678            11267843678500000526449P 206061216710304288067843678            101216000000000784434138730010000000000000                          000000000000000000000000000000000000000000000000784400000000000000000000000000                                                                                    100000000071216000000186
1020167374400013000027242600011199792000000000000007100304293167843706            112678437064000005264775 206061216710304293167843706            101216000000001135510410290010000000000000                          000000000000000000000000000000000000000000000001135500000000000000000000000000                                                                                    100000000071216000000187
1020167374400013000027242600011199792000000000000007200229750467844041            112678440415000005268169 206061216720229750467844041            101216000000000663023732010010000000000000                          000000000000000000000000000000000000000000000000663000000000000000000000000000                                                                                    100000000071216000000188
1020167374400013000027242600011199792000000000000007200229759167844102            112678441025000005268770 206061216720229759167844102            101216000000000552300103250010000000000000                          000000000000000000000000000000000000000000000000552300000000000000000000000000                                                                                    100000000071216000000189
1020167374400013000027242600011199792000000000000007200229762867844124            112678441249000005268991 206061216720229762867844124            101216000000000568610415830010000000000000                          000000000000000000000000000000000000000000000000568600000000000000000000000000                                                                                    100000000071216000000190
1020167374400013000027242600011199792000000000000007300235523367844234            112678442346000005270201 206061216730235523367844234            101216000000000488510430150010000000000000                          000000000000000000000000000000000000000000000000488500000000000000000000000000                                                                                    100000000071216000000191
1020167374400013000027242600011199792000000000000007300235532667844283            112678442833000005270740 206061216730235532667844283            101216000000000769010400470010000000000000                          000000000000000000000000000000000000000000000000769000000000000000000000000000                                                                                    100000000071216000000192
1020167374400013000027242600011199792000000000000007400229213567844310            112678443104000005271011 206061216740229213567844310            101216000000000571710415810010000000000000                          000000000000000000000000000000000000000000000000571700000000000000000000000000                                                                                    100000000071216000000193
1020167374400013000027242600011199792000000000000007400229214067844315            112678443153000005271062 206061216740229214067844315            101216000000000599034160660010000000000000                          000000000000000000000000000000000000000000000000599000000000000000000000000000                                                                                    100000000071216000000194
1020167374400013000027242600011199792000000000000007400229221967844370            112678443708000005271615 206061216740229221967844370            101216000000000688110409440010000000000000                          000000000000000000000000000000000000000000000000688100000000000000000000000000                                                                                    100000000071216000000195
1020167374400013000027242600011199792000000000000007400229225967844396            112678443963000005271879 206061216740229225967844396            101216000000000915134171250010000000000000                          000000000000000000000000000000000000000000000000915100000000000000000000000000                                                                                    100000000071216000000196
1020167374400013000027242600011199792000000000000007400229231067844424            112678444243000005272166 206061216740229231067844424            101216000000000499010415810010000000000000                          000000000000000000000000000000000000000000000000499000000000000000000000000000                                                                                    100000000071216000000197
1020167374400013000027242600011199792000000000000008200215115367844540            112678445406000005273340 206061216820215115367844540            101216000000000591134116250010000000000000                          000000000000000000000000000000000000000000000000591100000000000000000000000000                                                                                    100000000071216000000198
1020167374400013000027242600011199792000000000000008200215124467844591            112678445919000005273855 206061216820215124467844591            101216000000000553704106700010000000000000                          000000000000000000000000000000000000000000000000553700000000000000000000000000                                                                                    100000000071216000000199
1020167374400013000027242600011199792000000000000008200215125967844599            112678445992000005273936 206061216820215125967844599            101216000000000305900138700010000000000000                          000000000000000000000000000000000000000000000000305900000000000000000000000000                                                                                    100000000071216000000200
1020167374400013000027242600011199792000000000000008200215130867844622            112678446222000005274177 206061216820215130867844622            101216000000000662110404780010000000000000                          000000000000000000000000000000000000000000000000662100000000000000000000000000                                                                                    100000000071216000000201
1020167374400013000027242600011199792000000000000008200215131967844625            112678446255000005274207 206061216820215131967844625            101216000000000399010404470010000000000000                          000000000000000000000000000000000000000000000000399000000000000000000000000000                                                                                    100000000071216000000202
1020167374400013000027242600011199792000000000000008200215139367844673            112678446735000005274681 206061216820215139367844673            101216000000001201210404780010000000000000                          000000000000000000000000000000000000000000000001201200000000000000000000000000                                                                                    100000000071216000000203
1020167374400013000027242600011199792000000000000008200215140667844682            112678446826000005274770 206061216820215140667844682            101216000000000709604106700010000000000000                          000000000000000000000000000000000000000000000000709600000000000000000000000000                                                                                    100000000071216000000204
1020167374400013000027242600011199792000000000000006200248815868010833            11268010833100000527584P 206061216620248815868010833            111216000000000559923728120010000000000000                          000000000000000000000000000000000000000000000000559900000000000000000000000000                                                                                    100000000071216000000205
1020167374400013000027242600011199792000000000000006300323377568010984            112680109842000005277354 206061216630323377568010984            111216000000000879603333520010000000000000                          000000000000000000000000000000000000000000000000879600000000000000000000000000                                                                                    100000000071216000000206
1020167374400013000027242600011199792000000000000006300323380468010997            112680109974000005277486 206061216630323380468010997            111216000000000600810401970010000000000000                          000000000000000000000000000000000000000000000000600800000000000000000000000000                                                                                    100000000071216000000207
1020167374400013000027242600011199792000000000000006300323381968011008            112680110089000005277591 206061216630323381968011008            111216000000000556610443750010000000000000                          000000000000000000000000000000000000000000000000556600000000000000000000000000                                                                                    100000000071216000000208
1020167374400013000027242600011199792000000000000006400346489868011037            112680110378000005277885 206061216640346489868011037            111216000000000599023704280010000000000000                          000000000000000000000000000000000000000000000000599000000000000000000000000000                                                                                    100000000071216000000209
1020167374400013000027242600011199792000000000000008200215157068011200            112680112002000005279519 206061216820215157068011200            111216000000000789704106700010000000000000                          000000000000000000000000000000000000000000000000789700000000000000000000000000                                                                                    100000000071216000000210
1020167374400013000027242600011199792000000000000006300323418968035051            112680350511000005288151 206061216630323418968035051            151216000000000623010440180010000000000000                          000000000000000000000000000000000000000000000000623000000000000000000000000000                                                                                    100000000071216000000211
1020167374400013000027242600011199792000000000000006300323431768035131            11268035131100000528895P 206061216630323431768035131            151216000000000714203333520010000000000000                          000000000000000000000000000000000000000000000000714200000000000000000000000000                                                                                    100000000071216000000212
1020167374400013000027242600011199792000000000000006300323441968035195            112680351956000005289603 206061216630323441968035195            151216000000000662903331080010000000000000                          000000000000000000000000000000000000000000000000662900000000000000000000000000                                                                                    100000000071216000000213
1020167374400013000027242600011199792000000000000006300323478168035391            11268035391100000529156P 206061216630323478168035391            151216000000000934500184010010000000000000                          000000000000000000000000000000000000000000000000934500000000000000000000000000                                                                                    100000000071216000000214
1020167374400013000027242600011199792000000000000006300323493368035464            112680354646000005292299 206061216630323493368035464            151216000000000480334193390010000000000000                          000000000000000000000000000000000000000000000000480300000000000000000000000000                                                                                    100000000071216000000215
1020167374400013000027242600011199792000000000000006300323563668035864            112680358647000005296294 206061216630323563668035864            151216000000000837903333520010000000000000                          000000000000000000000000000000000000000000000000837900000000000000000000000000                                                                                    100000000071216000000216
1020167374400013000027242600011199792000000000000006300323575068035931            112680359314000005296960 206061216630323575068035931            151216000000000729000158870010000000000000                          000000000000000000000000000000000000000000000000729000000000000000000000000000                                                                                    100000000071216000000217
1020167374400013000027242600011199792000000000000006300323575968035937            112680359371000005297029 206061216630323575968035937            151216000000000863410443750010000000000000                          000000000000000000000000000000000000000000000000863400000000000000000000000000                                                                                    100000000071216000000218
1020167374400013000027242600011199792000000000000006400346552668036408            112680364082000005301735 206061216640346552668036408            151216000000000599010425190010000000000000                          000000000000000000000000000000000000000000000000599000000000000000000000000000                                                                                    100000000071216000000219
1020167374400013000027242600011199792000000000000006400346615668036767            112680367671000005305323 206061216640346615668036767            151216000000000709634131390010000000000000                          000000000000000000000000000000000000000000000000709600000000000000000000000000                                                                                    100000000071216000000220
1020167374400013000027242600011199792000000000000006400346621068036796            112680367960000005305617 206061216640346621068036796            151216000000000449000129950010000000000000                          000000000000000000000000000000000000000000000000449000000000000000000000000000                                                                                    100000000071216000000221
1020167374400013000027242600011199792000000000000006400346694568037219            112680372192000005309841 206061216640346694568037219            151216000000000597610401260010000000000000                          000000000000000000000000000000000000000000000000597600000000000000000000000000                                                                                    100000000071216000000222
1020167374400013000027242600011199792000000000000006400346707068037303            112680373034000005310688 206061216640346707068037303            151216000000000549010436960010000000000000                          000000000000000000000000000000000000000000000000549000000000000000000000000000                                                                                    100000000071216000000223
1020167374400013000027242600011199792000000000000006400346728868037434            112680374347000005311994 206061216640346728868037434            151216000000000399010436960010000000000000                          000000000000000000000000000000000000000000000000399000000000000000000000000000                                                                                    100000000071216000000224
1020167374400013000027242600011199792000000000000006400346734068037470            112680374701000005312354 206061216640346734068037470            151216000000000677400125920010000000000000                          000000000000000000000000000000000000000000000000677400000000000000000000000000                                                                                    100000000071216000000225
1020167374400013000027242600011199792000000000000007100304373568037586            112680375864000005313520 206061216710304373568037586            151216000000000597634107730010000000000000                          000000000000000000000000000000000000000000000000597600000000000000000000000000                                                                                    100000000071216000000226
1020167374400013000027242600011199792000000000000007400229252668037876            112680378769000005316430 206061216740229252668037876            151216000000000443210409440010000000000000                          000000000000000000000000000000000000000000000000443200000000000000000000000000                                                                                    100000000071216000000227
1020167374400013000027242600011199792000000000000008200215163568037936            112680379361000005317038 206061216820215163568037936            151216000000000773610404780010000000000000                          000000000000000000000000000000000000000000000000773600000000000000000000000000                                                                                    100000000071216000000228
1020167374400013000027242600011199792000000000000008200215176368037998            112680379981000005317658 206061216820215176368037998            151216000000000598410404780010000000000000                          000000000000000000000000000000000000000000000000598400000000000000000000000000                                                                                    100000000071216000000229
1020167374400013000027242600011237873000000000000006200248363567389196            112673891968000005121176 206061216620248363567389196            101116000000001145323728120010000000000000                          000000000000000000000000000000000000000000000001145300000000000000000000000000                                                                                    100000000071216000000230
1020167374400013000027242600011237873000000000000006300321423267389887            112673898872000005128146 206061216630321423267389887            101116000000001178023715920010000000000000                          000000000000000000000000000000000000000000000001178000000000000000000000000000                                                                                    100000000071216000000231
1020167374400013000027242600011237873000000000000006300321584267390890            112673908903000005138893 206061216630321584267390890            101116000000000515423715920010000000000000                          000000000000000000000000000000000000000000000000515400000000000000000000000000                                                                                    100000000071216000000232
1020167374400013000027242600011237873000000000000006300321662967391318            112673913184000005143641 206061216630321662967391318            101116000000000907523704310010000000000000                          000000000000000000000000000000000000000000000000907500000000000000000000000000                                                                                    100000000071216000000233
1020167374400013000027242600011237873000000000000006300321765467391959            112673919595000005150532 206061216630321765467391959            101116000000000627823771380010000000000000                          000000000000000000000000000000000000000000000000627800000000000000000000000000                                                                                    100000000071216000000234
1020167374400013000027242600011237873000000000000006300321775467392026            112673920262000005151253 206061216630321775467392026            101116000000000515823715920010000000000000                          000000000000000000000000000000000000000000000000515800000000000000000000000000                                                                                    100000000071216000000235
1020167374400013000027242600011237873000000000000006300321806267392213            112673922136000005153310 206061216630321806267392213            101116000000000446023771380010000000000000                          000000000000000000000000000000000000000000000000446000000000000000000000000000                                                                                    100000000071216000000236
1020167374400013000027242600011237873000000000000006300321806467392215            112673922151000005153337 206061216630321806467392215            101116000000000423623713390010000000000000                          000000000000000000000000000000000000000000000000423600000000000000000000000000                                                                                    100000000071216000000237
1020167374400013000027242600011237873000000000000005200330371868092689            112680926898000005318050 206061216520330371868092689            201216000000000643300156570010000000000000                          000000000000000000000000000000000000000000000000643300000000000000000000000000                                                                                    100000000071216000000238
1020167374400013000027242600011237873000000000000006100401406568092786            112680927862000005319022 206061216610401406568092786            201216000000000886523765660010000000000000                          000000000000000000000000000000000000000000000000886500000000000000000000000000                                                                                    100000000071216000000239
1020167374400013000027242600011237873000000000000006100401407168092789            112680927896000005319057 206061216610401407168092789            201216000000001277300178150010000000000000                          000000000000000000000000000000000000000000000001277300000000000000000000000000                                                                                    100000000071216000000240
1020167374400013000027242600011237873000000000000006300323652968093050            112680930502000005321663 206061216630323652968093050            201216000000000820010415040010000000000000                          000000000000000000000000000000000000000000000000820000000000000000000000000000                                                                                    100000000071216000000241
1020167374400013000027242600011237873000000000000006300323709268093298            11268093298700000532414P 206061216630323709268093298            201216000000000649010415040010000000000000                          000000000000000000000000000000000000000000000000649000000000000000000000000000                                                                                    100000000071216000000242
1020167374400013000027242600011237873000000000000006300323714668093326            112680933266000005324425 206061216630323714668093326            201216000000000664734161250010000000000000                          000000000000000000000000000000000000000000000000664700000000000000000000000000                                                                                    100000000071216000000243
1020167374400013000027242600011237873000000000000006300323732968093423            112680934231000005325391 206061216630323732968093423            201216000000000599010431910010000000000000                          000000000000000000000000000000000000000000000000599000000000000000000000000000                                                                                    100000000071216000000244
1020167374400013000027242600011237873000000000000006400346839868093875            112680938752000005329915 206061216640346839868093875            201216000000001199010436960010000000000000                          000000000000000000000000000000000000000000000001199000000000000000000000000000                                                                                    100000000071216000000245
1020167374400013000027242600011237873000000000000006400346846568093907            112680939073000005330239 206061216640346846568093907            201216000000000649010436960010000000000000                          000000000000000000000000000000000000000000000000649000000000000000000000000000                                                                                    100000000071216000000246
1020167374400013000027242600011237873000000000000007100304412468094074            112680940741000005331936 206061216710304412468094074            201216000000000553700118330010000000000000                          000000000000000000000000000000000000000000000000553700000000000000000000000000                                                                                    100000000071216000000247
1020167374400013000027242600011237873000000000000006300323789268207418            112682074184000005338477 206061216630323789268207418            251216000000000649010443750010000000000000                          000000000000000000000000000000000000000000000000649000000000000000000000000000                                                                                    100000000071216000000248
1020167374400013000027242600011237873000000000000006300323822668207540            112682075405000005339694 206061216630323822668207540            251216000000000571710401970010000000000000                          000000000000000000000000000000000000000000000000571700000000000000000000000000                                                                                    100000000071216000000249
