02RETORNO01COBRANCA       00000000000004009978TELEVISAO CIDADE  S/A         237BRADESCO       0712160160000002166                                                                                                                                                                                                                                                                          081216         000001
1020167374400013000000090339100575003                         000000005200330323460000000000000000000000000917071216          00000000520033032346000000000000000582810402405  000000000000000000000000000000000000000000000000000000000000000000000000000000000000000582800000000000000000000000000   081216                 0000000000                                                                  000002
1020167374400013000000090339100575003                         000000005200330434610000000000000000000000000917071216          00000000520033043461000000000000000188923703490  000000000000000000000000000000000000000000000000000000000000000000000000000000000000000188900000000000000000000000000   081216                 0000000000                                                                  000003
1020167374400013000000090339100575003                         000000005200330437710000000000000000000000000917071216          00000000520033043771000000000000000599000108330  000000000000000000000000000000000000000000000000000000000000000000000000000000000000000599000000000000000000000000000   081216                 0000000000                                                                  000004
1020167374400013000000090339100575003                         000000005200330438360000000000000000000000000917071216          00000000520033043836000000000000000161604700093  000000000000000000000000000000000000000000000000000000000000000000000000000000000000000161600000000000000000000000000   081216                 0000000000                                                                  000005
1020167374400013000000090339100575003                         000000005200330438520000000000000000000000000917071216          00000000520033043852000000000000000627304700001  000000000000000000000000000000000000000000000000000000000000000000000000000000000000000627300000000000000000000000000   081216                 0000000000                                                                  000006
1020167374400013000000090339100575003                         000000005200330441660000000000000000000000000917071216          00000000520033044166000000000000000449010402382  000000000000000000000000000000000000000000000000000000000000000000000000000000000000000449000000000000000000000000000   081216                 0000000000                                                                  000007
1020167374400013000000090339100575003                         000000005200330441740000000000000000000000000917071216          00000000520033044174000000000000001707004700051  000000000000000000000000000000000000000000000000000000000000000000000000000000000000001707000000000000000000000000000   081216                 0000000000                                                                  000008
1020167374400013000000090339100575003                         000000005200330441820000000000000000000000000917071216          00000000520033044182000000000000000449010403303  000000000000000000000000000000000000000000000000000000000000000000000000000000000000000449000000000000000000000000000   081216                 0000000000                                                                  000009
1020167374400013000000090339100575003                         000000005200330441900000000000000000000000000917071216          00000000520033044190000000000000001349710402175  000000000000000000000000000000000000000000000000000000000000000000000000000000000000001349700000000000000000000000000   081216                 0000000000                                                                  000010
1020167374400013000000090339100575003                         000000005200330442040000000000000000000000000917071216          00000000520033044204000000000000001320010402175  000000000000000000000000000000000000000000000000000000000000000000000000000000000000001320000000000000000000000000000   081216                 0000000000                                                                  000011
1020167374400013000000090339100575003                         000000005200330442120000000000000000000000000917071216          00000000520033044212000000000000001585900100017  000000000000000000000000000000000000000000000000000000000000000000000000000000000000001585900000000000000000000000000   081216                 0000000000                                                                  000012
1020167374400013000000090339100575003                         000000005200330442200000000000000000000000000917071216          00000000520033044220000000000000002350004700043  000000000000000000000000000000000000000000000000000000000000000000000000000000000000002350000000000000000000000000000   081216                 0000000000                                                                  000013
1020167374400013000000090339100575003                         000000005200330442470000000000000000000000000917071216          00000000520033044247000000000000000471704700093  000000000000000000000000000000000000000000000000000000000000000000000000000000000000000471700000000000000000000000000   081216                 0000000000                                                                  000014
1020167374400013000000090339100575003                         000000005200330442550000000000000000000000000917071216          00000000520033044255000000000000000554310402382  000000000000000000000000000000000000000000000000000000000000000000000000000000000000000554300000000000000000000000000   081216                 0000000000                                                                  000015
1020167374400013000000090339100575003                         000000005200330442630000000000000000000000000917071216          00000000520033044263000000000000000631210402382  000000000000000000000000000000000000000000000000000000000000000000000000000000000000000631200000000000000000000000000   081216                 0000000000                                                                  000016
1020167374400013000000090339100575003                         000000005200330442710000000000000000000000000917071216          00000000520033044271000000000000000793710402186  000000000000000000000000000000000000000000000000000000000000000000000000000000000000000793700000000000000000000000000   081216                 0000000000                                                                  000017
1020167374400013000000090339100575003                         000000005200330443790000000000000000000000000917071216          00000000520033044379000000000000001622110402405  000000000000000000000000000000000000000000000000000000000000000000000000000000000000001622100000000000000000000000000   081216                 0000000000                                                                  000018
1020167374400013000000090339100575003                         000000005200330444250000000000000000000000000917071216          00000000520033044425000000000000001257610402382  000000000000000000000000000000000000000000000000000000000000000000000000000000000000001257600000000000000000000000000   081216                 0000000000                                                                  000019
1020167374400013000000090339100575003                         000000005200330446380000000000000000000000000917071216          00000000520033044638000000000000000780504700015  000000000000000000000000000000000000000000000000000000000000000000000000000000000000000780500000000000000000000000000   081216                 0000000000                                                                  000020
1020167374400013000000090339100575003                         000000005200330446540000000000000000000000000917071216          00000000520033044654000000000000000839004700011  000000000000000000000000000000000000000000000000000000000000000000000000000000000000000839000000000000000000000000000   081216                 0000000000                                                                  000021
1020167374400013000000090339100575003                         000000006100401477780000000000000000000000000917071216          00000000610040147778000000000000000277710400175  000000000000000000000000000000000000000000000000000000000000000000000000000000000000000277700000000000000000000000000   081216                 0000000000                                                                  000022
1020167374400013000000090339100575003                         0000000061004014812P0000000000000000000000000917071216          0000000061004014812P000000000000000943210401247  000000000000000000000000000000000000000000000000000000000000000000000000000000000000000943200000000000000000000000000   081216                 0000000000                                                                  000023
1020167374400013000000090339100575003                         000000006100401481460000000000000000000000000917071216          00000000610040148146000000000000001000710401247  000000000000000000000000000000000000000000000000000000000000000000000000000000000000001000700000000000000000000000000   081216                 0000000000                                                                  000024
1020167374400013000000090339100575003                         000000006100401482270000000000000000000000000917071216          00000000610040148227000000000000000231500104767  000000000000000000000000000000000000000000000000000000000000000000000000000000000000000231500000000000000000000000000   081216                 0000000000                                                                  000025
1020167374400013000000090339100575003                         0000000061004014843P0000000000000000000000000917071216          0000000061004014843P000000000000000633310401247  000000000000000000000000000000000000000000000000000000000000000000000000000000000000000633300000000000000000000000000   081216                 0000000000                                                                  000026
1020167374400013000000090339100575003                         000000006100401484800000000000000000000000000917071216          00000000610040148480000000000000000950210403092  000000000000000000000000000000000000000000000000000000000000000000000000000000000000000950200000000000000000000000000   081216                 0000000000                                                                  000027
1020167374400013000000090339100575003                         000000006100401484990000000000000000000000000917071216          00000000610040148499000000000000001312334106014  000000000000000000000000000000000000000000000000000000000000000000000000000000000000001312300000000000000000000000000   081216                 0000000000                                                                  000028
1020167374400013000000090339100575003                         000000006100401485020000000000000000000000000917071216          00000000610040148502000000000000000699010400175  000000000000000000000000000000000000000000000000000000000000000000000000000000000000000699000000000000000000000000000   081216                 0000000000                                                                  000029
1020167374400013000000090339100575003                         000000006100401485100000000000000000000000000917071216          00000000610040148510000000000000000396710404670  000000000000000000000000000000000000000000000000000000000000000000000000000000000000000396700000000000000000000000000   081216                 0000000000                                                                  000030
1020167374400013000000090339100575003                         000000006100401485290000000000000000000000000917071216          00000000610040148529000000000000001392810403092  000000000000000000000000000000000000000000000000000000000000000000000000000000000000001392800000000000000000000000000   081216                 0000000000                                                                  000031
1020167374400013000000090339100575003                         000000006100401486260000000000000000000000000917071216          00000000610040148626000000000000000946410400175  000000000000000000000000000000000000000000000000000000000000000000000000000000000000000946400000000000000000000000000   081216                 0000000000                                                                  000032
1020167374400013000000090339100575003                         000000006100401486420000000000000000000000000917071216          00000000610040148642000000000000000461123703071  000000000000000000000000000000000000000000000000000000000000000000000000000000000000000461100000000000000000000000000   081216                 0000000000                                                                  000033
1020167374400013000000090339100575003                         000000006100401486500000000000000000000000000917071216          00000000610040148650000000000000000462523703071  000000000000000000000000000000000000000000000000000000000000000000000000000000000000000462500000000000000000000000000   081216                 0000000000                                                                  000034
1020167374400013000000090339100575003                         000000006100401486770000000000000000000000000917071216          00000000610040148677000000000000000792703303396  000000000000000000000000000000000000000000000000000000000000000000000000000000000000000792700000000000000000000000000   081216                 0000000000                                                                  000035
1020167374400013000000090339100575003                         000000006100401486850000000000000000000000000917071216          00000000610040148685000000000000000699023702807  000000000000000000000000000000000000000000000000000000000000000000000000000000000000000699000000000000000000000000000   081216                 0000000000                                                                  000036
1020167374400013000000090339100575003                         000000006200248975330000000000000000000000000917071216          00000000620024897533000000000000000595923700543  000000000000000000000000000000000000000000000000000000000000000000000000000000000000000595900000000000000000000000000   081216                 0000000000                                                                  000037
1020167374400013000000090339100575003                         000000006200248975410000000000000000000000000917071216          00000000620024897541000000000000000634123700543  000000000000000000000000000000000000000000000000000000000000000000000000000000000000000634100000000000000000000000000   081216                 0000000000                                                                  000038
1020167374400013000000090339100575003                         000000006200248979160000000000000000000000000917071216          00000000620024897916000000000000000706810403028  000000000000000000000000000000000000000000000000000000000000000000000000000000000000000706800000000000000000000000000   081216                 0000000000                                                                  000039
1020167374400013000000090339100575003                         000000006200248979590000000000000000000000000917071216          00000000620024897959000000000000001187023707118  000000000000000000000000000000000000000000000000000000000000000000000000000000000000001187000000000000000000000000000   081216                 0000000000                                                                  000040
1020167374400013000000090339100575003                         0000000062002489805P0000000000000000000000000917071216          0000000062002489805P000000000000000150000103652  000000000000000000000000000000000000000000000000000000000000000000000000000000000000000150000000000000000000000000000   081216                 0000000000                                                                  000041
1020167374400013000000090339100575003                         000000006200248983000000000000000000000000000917071216          00000000620024898300000000000000000939803303405  000000000000000000000000000000000000000000000000000000000000000000000000000000000000000939800000000000000000000000000   081216                 0000000000                                                                  000042
1020167374400013000000090339100575003                         000000006200248983780000000000000000000000000917071216          00000000620024898378000000000000000723610401507  000000000000000000000000000000000000000000000000000000000000000000000000000000000000000723600000000000000000000000000   081216                 0000000000                                                                  000043
1020167374400013000000090339100575003                         000000006200248984320000000000000000000000000917071216          00000000620024898432000000000000001218510402699  000000000000000000000000000000000000000000000000000000000000000000000000000000000000001218500000000000000000000000000   081216                 0000000000                                                                  000044
1020167374400013000000090339100575003                         000000006200248984590000000000000000000000000917071216          00000000620024898459000000000000000625234106058  000000000000000000000000000000000000000000000000000000000000000000000000000000000000000625200000000000000000000000000   081216                 0000000000                                                                  000045
1020167374400013000000090339100575003                         000000006200248984910000000000000000000000000917071216          00000000620024898491000000000000000720310401247  000000000000000000000000000000000000000000000000000000000000000000000000000000000000000720300000000000000000000000000   081216                 0000000000                                                                  000046
1020167374400013000000090339100575003                         000000006200248985210000000000000000000000000917071216          00000000620024898521000000000000000717810401247  000000000000000000000000000000000000000000000000000000000000000000000000000000000000000717800000000000000000000000000   081216                 0000000000                                                                  000047
1020167374400013000000090339100575003                         0000000062002489853P0000000000000000000000000917071216          0000000062002489853P000000000000000203010401247  000000000000000000000000000000000000000000000000000000000000000000000000000000000000000203000000000000000000000000000   081216                 0000000000                                                                  000048
1020167374400013000000090339100575003                         000000006200248985480000000000000000000000000917071216          00000000620024898548000000000000000773710400889  000000000000000000000000000000000000000000000000000000000000000000000000000000000000000773700000000000000000000000000   081216                 0000000000                                                                  000049
1020167374400013000000090339100575003                         000000006200248985560000000000000000000000000917071216          00000000620024898556000000000000000514510400889  000000000000000000000000000000000000000000000000000000000000000000000000000000000000000514500000000000000000000000000   081216                 0000000000                                                                  000050
1020167374400013000000090339100575003                         000000006200248986370000000000000000000000000917071216          00000000620024898637000000000000000752310403594  000000000000000000000000000000000000000000000000000000000000000000000000000000000000000752300000000000000000000000000   081216                 0000000000                                                                  000051
1020167374400013000000090339100575003                         000000006200248986610000000000000000000000000917071216          00000000620024898661000000000000001314803303405  000000000000000000000000000000000000000000000000000000000000000000000000000000000000001314800000000000000000000000000   081216                 0000000000                                                                  000052
1020167374400013000000090339100575003                         000000006300322346030000000000000000000000000917071216          00000000630032234603000000000000000593923706797  000000000000000000000000000000000000000000000000000000000000000000000000000000000000000593900000000000000000000000000   081216                 0000000000                                                                  000053
1020167374400013000000090339100575003                         000000006300323910080000000000000000000000000917071216          00000000630032391008000000000000000684523701545  000000000000000000000000000000000000000000000000000000000000000000000000000000000000000684500000000000000000000000000   081216                 0000000000                                                                  000054
1020167374400013000000090339100575003                         000000006300323940660000000000000000000000000917071216          00000000630032394066000000000000000707223701339  000000000000000000000000000000000000000000000000000000000000000000000000000000000000000707200000000000000000000000000   081216                 0000000000                                                                  000055
1020167374400013000000090339100575003                         000000006300323942440000000000000000000000000917071216          00000000630032394244000000000000000676410404375  000000000000000000000000000000000000000000000000000000000000000000000000000000000000000676400000000000000000000000000   081216                 0000000000                                                                  000056
1020167374400013000000090339100575003                         000000006300323951940000000000000000000000000917071216          00000000630032395194000000000000000788723707138  000000000000000000000000000000000000000000000000000000000000000000000000000000000000000788700000000000000000000000000   081216                 0000000000                                                                  000057
1020167374400013000000090339100575003                         000000006300323956740000000000000000000000000917071216          00000000630032395674000000000000000518434107813  000000000000000000000000000000000000000000000000000000000000000000000000000000000000000518400000000000000000000000000   081216                 0000000000                                                                  000058
1020167374400013000000090339100575003                         000000006300323957040000000000000000000000000917071216          00000000630032395704000000000000000644810400197  000000000000000000000000000000000000000000000000000000000000000000000000000000000000000644800000000000000000000000000   081216                 0000000000                                                                  000059
1020167374400013000000090339100575003                         000000006300323958010000000000000000000000000917071216          00000000630032395801000000000000001279910404375  000000000000000000000000000000000000000000000000000000000000000000000000000000000000001279900000000000000000000000000   081216                 0000000000                                                                  000060
1020167374400013000000090339100575003                         000000006300323959250000000000000000000000000917071216          00000000630032395925000000000000000689523707137  000000000000000000000000000000000000000000000000000000000000000000000000000000000000000689500000000000000000000000000   081216                 0000000000                                                                  000061
1020167374400013000000090339100575003                         0000000063003239595P0000000000000000000000000917071216          0000000063003239595P000000000000000611410401504  000000000000000000000000000000000000000000000000000000000000000000000000000000000000000611400000000000000000000000000   081216                 0000000000                                                                  000062
1020167374400013000000090339100575003                         000000006300323961230000000000000000000000000917071216          00000000630032396123000000000000000579010404018  000000000000000000000000000000000000000000000000000000000000000000000000000000000000000579000000000000000000000000000   081216                 0000000000                                                                  000063
1020167374400013000000090339100575003                         000000006300323962550000000000000000000000000917071216          00000000630032396255000000000000001454000100469  000000000000000000000000000000000000000000000000000000000000000000000000000000000000001454000000000000000000000000000   081216                 0000000000                                                                  000064
1020167374400013000000090339100575003                         0000000063003239628P0000000000000000000000000917071216          0000000063003239628P000000000000001342500100469  000000000000000000000000000000000000000000000000000000000000000000000000000000000000001342500000000000000000000000000   081216                 0000000000                                                                  000065
1020167374400013000000090339100575003                         000000006300323964840000000000000000000000000917071216          00000000630032396484000000000000000671310404375  000000000000000000000000000000000000000000000000000000000000000000000000000000000000000671300000000000000000000000000   081216                 0000000000                                                                  000066
1020167374400013000000090339100575003                         0000000063003239662P0000000000000000000000000917071216          0000000063003239662P000000000000001593010404018  000000000000000000000000000000000000000000000000000000000000000000000000000000000000001593000000000000000000000000000   081216                 0000000000                                                                  000067
1020167374400013000000090339100575003                         000000006300323967000000000000000000000000000917071216          00000000630032396700000000000000000808400104427  000000000000000000000000000000000000000000000000000000000000000000000000000000000000000808400000000000000000000000000   081216                 0000000000                                                                  000068
1020167374400013000000090339100575003                         000000006300323967940000000000000000000000000917071216          00000000630032396794000000000000000689610404375  000000000000000000000000000000000000000000000000000000000000000000000000000000000000000689600000000000000000000000000   081216                 0000000000                                                                  000069
1020167374400013000000090339100575003                         000000006300323968910000000000000000000000000917071216          00000000630032396891000000000000000146610401504  000000000000000000000000000000000000000000000000000000000000000000000000000000000000000146600000000000000000000000000   081216                 0000000000                                                                  000070
1020167374400013000000090339100575003                         000000006300323971460000000000000000000000000917071216          00000000630032397146000000000000000437434109926  000000000000000000000000000000000000000000000000000000000000000000000000000000000000000437400000000000000000000000000   081216                 0000000000                                                                  000071
1020167374400013000000090339100575003                         000000006300323971540000000000000000000000000917071216          00000000630032397154000000000000000592823700431  000000000000000000000000000000000000000000000000000000000000000000000000000000000000000592800000000000000000000000000   081216                 0000000000                                                                  000072
1020167374400013000000090339100575003                         000000006300323972000000000000000000000000000917071216          00000000630032397200000000000000001264210404018  000000000000000000000000000000000000000000000000000000000000000000000000000000000000001264200000000000000000000000000   081216                 0000000000                                                                  000073
1020167374400013000000090339100575003                         000000006300323972190000000000000000000000000917071216          00000000630032397219000000000000001229910401504  000000000000000000000000000000000000000000000000000000000000000000000000000000000000001229900000000000000000000000000   081216                 0000000000                                                                  000074
1020167374400013000000090339100575003                         000000006300323974990000000000000000000000000917071216          00000000630032397499000000000000000800810401504  000000000000000000000000000000000000000000000000000000000000000000000000000000000000000800800000000000000000000000000   081216                 0000000000                                                                  000075
1020167374400013000000090339100575003                         000000006300323975020000000000000000000000000917071216          00000000630032397502000000000000000821610401504  000000000000000000000000000000000000000000000000000000000000000000000000000000000000000821600000000000000000000000000   081216                 0000000000                                                                  000076
1020167374400013000000090339100575003                         000000006300323975100000000000000000000000000917071216          00000000630032397510000000000000000800810401504  000000000000000000000000000000000000000000000000000000000000000000000000000000000000000800800000000000000000000000000   081216                 0000000000                                                                  000077
1020167374400013000000090339100575003                         000000006300323975290000000000000000000000000917071216          00000000630032397529000000000000000253010404018  000000000000000000000000000000000000000000000000000000000000000000000000000000000000000253000000000000000000000000000   081216                 0000000000                                                                  000078
1020167374400013000000090339100575003                         000000006300323975530000000000000000000000000917071216          00000000630032397553000000000000001923034105198  000000000000000000000000000000000000000000000000000000000000000000000000000000000000001923000000000000000000000000000   081216                 0000000000                                                                  000079
1020167374400013000000090339100575003                         000000006300323976420000000000000000000000000917071216          00000000630032397642000000000000000475110401504  000000000000000000000000000000000000000000000000000000000000000000000000000000000000000475100000000000000000000000000   081216                 0000000000                                                                  000080
1020167374400013000000090339100575003                         000000006300323977900000000000000000000000000917071216          00000000630032397790000000000000000349003300138  000000000000000000000000000000000000000000000000000000000000000000000000000000000000000349000000000000000000000000000   081216                 0000000000                                                                  000081
1020167374400013000000090339100575003                         000000006300323978390000000000000000000000000917071216          00000000630032397839000000000000000349003300138  000000000000000000000000000000000000000000000000000000000000000000000000000000000000000349000000000000000000000000000   081216                 0000000000                                                                  000082
1020167374400013000000090339100575003                         000000006300323978710000000000000000000000000917071216          00000000630032397871000000000000000612010404018  000000000000000000000000000000000000000000000000000000000000000000000000000000000000000612000000000000000000000000000   081216                 0000000000                                                                  000083
1020167374400013000000090339100575003                         0000000063003239788P0000000000000000000000000917071216          0000000063003239788P000000000000000597610404018  000000000000000000000000000000000000000000000000000000000000000000000000000000000000000597600000000000000000000000000   081216                 0000000000                                                                  000084
1020167374400013000000090339100575003                         000000006300323979010000000000000000000000000917071216          00000000630032397901000000000000000612503303296  000000000000000000000000000000000000000000000000000000000000000000000000000000000000000612500000000000000000000000000   081216                 0000000000                                                                  000085
1020167374400013000000090339100575003                         000000006300323979280000000000000000000000000917071216          00000000630032397928000000000000000476503300138  000000000000000000000000000000000000000000000000000000000000000000000000000000000000000476500000000000000000000000000   081216                 0000000000                                                                  000086
1020167374400013000000090339100575003                         000000006300323979600000000000000000000000000917071216          00000000630032397960000000000000000467810404375  000000000000000000000000000000000000000000000000000000000000000000000000000000000000000467800000000000000000000000000   081216                 0000000000                                                                  000087
1020167374400013000000090339100575003                         000000006300323979870000000000000000000000000917071216          00000000630032397987000000000000001403610401504  000000000000000000000000000000000000000000000000000000000000000000000000000000000000001403600000000000000000000000000   081216                 0000000000                                                                  000088
1020167374400013000000090339100575003                         000000006300323979950000000000000000000000000917071216          00000000630032397995000000000000000616623701339  000000000000000000000000000000000000000000000000000000000000000000000000000000000000000616600000000000000000000000000   081216                 0000000000                                                                  000089
1020167374400013000000090339100575003                         000000006300323980020000000000000000000000000917071216          00000000630032398002000000000000000480610404018  000000000000000000000000000000000000000000000000000000000000000000000000000000000000000480600000000000000000000000000   081216                 0000000000                                                                  000090
1020167374400013000000090339100575003                         000000006300323980100000000000000000000000000917071216          00000000630032398010000000000000000799010404018  000000000000000000000000000000000000000000000000000000000000000000000000000000000000000799000000000000000000000000000   081216                 0000000000                                                                  000091
1020167374400013000000090339100575003                         000000006300323980290000000000000000000000000917071216          00000000630032398029000000000000000591810401504  000000000000000000000000000000000000000000000000000000000000000000000000000000000000000591800000000000000000000000000   081216                 0000000000                                                                  000092
1020167374400013000000090339100575003                         000000006300323980370000000000000000000000000917071216          00000000630032398037000000000000000791410404018  000000000000000000000000000000000000000000000000000000000000000000000000000000000000000791400000000000000000000000000   081216                 0000000000                                                                  000093
1020167374400013000000090339100575003                         000000006300323980530000000000000000000000000917071216          00000000630032398053000000000000001166800105887  000000000000000000000000000000000000000000000000000000000000000000000000000000000000001166800000000000000000000000000   081216                 0000000000                                                                  000094
1020167374400013000000090339100575003                         0000000063003239807P0000000000000000000000000917071216          0000000063003239807P000000000000000684834107228  000000000000000000000000000000000000000000000000000000000000000000000000000000000000000684800000000000000000000000000   081216                 0000000000                                                                  000095
1020167374400013000000090339100575003                         000000006300323980880000000000000000000000000917071216          00000000630032398088000000000000000684634107228  000000000000000000000000000000000000000000000000000000000000000000000000000000000000000684600000000000000000000000000   081216                 0000000000                                                                  000096
1020167374400013000000090339100575003                         000000006300323981420000000000000000000000000917071216          00000000630032398142000000000000000625623700431  000000000000000000000000000000000000000000000000000000000000000000000000000000000000000625600000000000000000000000000   081216                 0000000000                                                                  000097
1020167374400013000000090339100575003                         000000006300323981500000000000000000000000000917071216          00000000630032398150000000000000000660110401504  000000000000000000000000000000000000000000000000000000000000000000000000000000000000000660100000000000000000000000000   081216                 0000000000                                                                  000098
1020167374400013000000090339100575003                         000000006300323981770000000000000000000000000917071216          00000000630032398177000000000000000299910401504  000000000000000000000000000000000000000000000000000000000000000000000000000000000000000299900000000000000000000000000   081216                 0000000000                                                                  000099
1020167374400013000000090339100575003                         000000006300323981930000000000000000000000000917071216          00000000630032398193000000000000000908010400197  000000000000000000000000000000000000000000000000000000000000000000000000000000000000000908000000000000000000000000000   081216                 0000000000                                                                  000100
1020167374400013000000090339100575003                         000000006300323982230000000000000000000000000917071216          00000000630032398223000000000000000615610400197  000000000000000000000000000000000000000000000000000000000000000000000000000000000000000615600000000000000000000000000   081216                 0000000000                                                                  000101
1020167374400013000000090339100575003                         000000006300323982580000000000000000000000000917071216          00000000630032398258000000000000001587010400197  000000000000000000000000000000000000000000000000000000000000000000000000000000000000001587000000000000000000000000000   081216                 0000000000                                                                  000102
1020167374400013000000090339100575003                         000000006300323983470000000000000000000000000917071216          00000000630032398347000000000000001269210401504  000000000000000000000000000000000000000000000000000000000000000000000000000000000000001269200000000000000000000000000   081216                 0000000000                                                                  000103
1020167374400013000000090339100575003                         000000006300323984010000000000000000000000000917071216          00000000630032398401000000000000000542910404018  000000000000000000000000000000000000000000000000000000000000000000000000000000000000000542900000000000000000000000000   081216                 0000000000                                                                  000104
1020167374400013000000090339100575003                         0000000063003239841P0000000000000000000000000917071216          0000000063003239841P000000000000000796010404018  000000000000000000000000000000000000000000000000000000000000000000000000000000000000000796000000000000000000000000000   081216                 0000000000                                                                  000105
1020167374400013000000090339100575003                         000000006300323984520000000000000000000000000917071216          00000000630032398452000000000000000567610404018  000000000000000000000000000000000000000000000000000000000000000000000000000000000000000567600000000000000000000000000   081216                 0000000000                                                                  000106
1020167374400013000000090339100575003                         000000006300323984600000000000000000000000000917071216          00000000630032398460000000000000000411123701339  000000000000000000000000000000000000000000000000000000000000000000000000000000000000000411100000000000000000000000000   081216                 0000000000                                                                  000107
1020167374400013000000090339100575003                         000000006300323984790000000000000000000000000917071216          00000000630032398479000000000000000921623706800  000000000000000000000000000000000000000000000000000000000000000000000000000000000000000921600000000000000000000000000   081216                 0000000000                                                                  000108
1020167374400013000000090339100575003                         000000006300323984870000000000000000000000000917071216          00000000630032398487000000000000000551610400197  000000000000000000000000000000000000000000000000000000000000000000000000000000000000000551600000000000000000000000000   081216                 0000000000                                                                  000109
1020167374400013000000090339100575003                         000000006300323985250000000000000000000000000917071216          00000000630032398525000000000000000849010400197  000000000000000000000000000000000000000000000000000000000000000000000000000000000000000849000000000000000000000000000   081216                 0000000000                                                                  000110
1020167374400013000000090339100575003                         000000006300323985410000000000000000000000000917071216          00000000630032398541000000000000000548710404018  000000000000000000000000000000000000000000000000000000000000000000000000000000000000000548700000000000000000000000000   081216                 0000000000                                                                  000111
1020167374400013000000090339100575003                         0000000063003239855P0000000000000000000000000917071216          0000000063003239855P000000000000000520610404018  000000000000000000000000000000000000000000000000000000000000000000000000000000000000000520600000000000000000000000000   081216                 0000000000                                                                  000112
1020167374400013000000090339100575003                         000000006300323986570000000000000000000000000917071216          00000000630032398657000000000000000777810404375  000000000000000000000000000000000000000000000000000000000000000000000000000000000000000777800000000000000000000000000   081216                 0000000000                                                                  000113
1020167374400013000000090339100575003                         000000006300323986650000000000000000000000000917071216          00000000630032398665000000000000000717710404375  000000000000000000000000000000000000000000000000000000000000000000000000000000000000000717700000000000000000000000000   081216                 0000000000                                                                  000114
1020167374400013000000090339100575003                         000000006300323986730000000000000000000000000917071216          00000000630032398673000000000000000832423700431  000000000000000000000000000000000000000000000000000000000000000000000000000000000000000832400000000000000000000000000   081216                 0000000000                                                                  000115
1020167374400013000000090339100575003                         000000006300323986810000000000000000000000000917071216          00000000630032398681000000000000001216410401504  000000000000000000000000000000000000000000000000000000000000000000000000000000000000001216400000000000000000000000000   081216                 0000000000                                                                  000116
1020167374400013000000090339100575003                         0000000063003239872P0000000000000000000000000917071216          0000000063003239872P000000000000000687810404375  000000000000000000000000000000000000000000000000000000000000000000000000000000000000000687800000000000000000000000000   081216                 0000000000                                                                  000117
1020167374400013000000090339100575003                         000000006300323987540000000000000000000000000917071216          00000000630032398754000000000000000692510404018  000000000000000000000000000000000000000000000000000000000000000000000000000000000000000692500000000000000000000000000   081216                 0000000000                                                                  000118
1020167374400013000000090339100575003                         000000006300323987700000000000000000000000000917071216          00000000630032398770000000000000001057023700431  000000000000000000000000000000000000000000000000000000000000000000000000000000000000001057000000000000000000000000000   081216                 0000000000                                                                  000119
1020167374400013000000090339100575003                         000000006300323988190000000000000000000000000917071216          00000000630032398819000000000000000564310404375  000000000000000000000000000000000000000000000000000000000000000000000000000000000000000564300000000000000000000000000   081216                 0000000000                                                                  000120
1020167374400013000000090339100575003                         000000006300323988350000000000000000000000000917071216          00000000630032398835000000000000000565610404375  000000000000000000000000000000000000000000000000000000000000000000000000000000000000000565600000000000000000000000000   081216                 0000000000                                                                  000121
1020167374400013000000090339100575003                         0000000063003239886P0000000000000000000000000917071216          0000000063003239886P000000000000000834810401504  000000000000000000000000000000000000000000000000000000000000000000000000000000000000000834800000000000000000000000000   081216                 0000000000                                                                  000122
1020167374400013000000090339100575003                         000000006300323988860000000000000000000000000917071216          00000000630032398886000000000000000702010401504  000000000000000000000000000000000000000000000000000000000000000000000000000000000000000702000000000000000000000000000   081216                 0000000000                                                                  000123
1020167374400013000000090339100575003                         000000006300323989830000000000000000000000000917071216          00000000630032398983000000000000000916603304437  000000000000000000000000000000000000000000000000000000000000000000000000000000000000000916600000000000000000000000000   081216                 0000000000                                                                  000124
1020167374400013000000090339100575003                         000000006300323990330000000000000000000000000917071216          00000000630032399033000000000000000536703300138  000000000000000000000000000000000000000000000000000000000000000000000000000000000000000536700000000000000000000000000   081216                 0000000000                                                                  000125
1020167374400013000000090339100575003                         000000006300323990410000000000000000000000000917071216          00000000630032399041000000000000000585303304169  000000000000000000000000000000000000000000000000000000000000000000000000000000000000000585300000000000000000000000000   081216                 0000000000                                                                  000126
1020167374400013000000090339100575003                         000000006300323991730000000000000000000000000917071216          00000000630032399173000000000000000479010404018  000000000000000000000000000000000000000000000000000000000000000000000000000000000000000479000000000000000000000000000   081216                 0000000000                                                                  000127
1020167374400013000000090339100575003                         000000006300323991810000000000000000000000000917071216          00000000630032399181000000000000000857803303536  000000000000000000000000000000000000000000000000000000000000000000000000000000000000000857800000000000000000000000000   081216                 0000000000                                                                  000128
1020167374400013000000090339100575003                         0000000063003239919P0000000000000000000000000917071216          0000000063003239919P000000000000000849034106194  000000000000000000000000000000000000000000000000000000000000000000000000000000000000000849000000000000000000000000000   081216                 0000000000                                                                  000129
1020167374400013000000090339100575003                         000000006300323992380000000000000000000000000917071216          00000000630032399238000000000000000440123701592  000000000000000000000000000000000000000000000000000000000000000000000000000000000000000440100000000000000000000000000   081216                 0000000000                                                                  000130
1020167374400013000000090339100575003                         000000006300323992460000000000000000000000000917071216          00000000630032399246000000000000000913810404377  000000000000000000000000000000000000000000000000000000000000000000000000000000000000000913800000000000000000000000000   081216                 0000000000                                                                  000131
1020167374400013000000090339100575003                         000000006300323993000000000000000000000000000917071216          00000000630032399300000000000000000857523700431  000000000000000000000000000000000000000000000000000000000000000000000000000000000000000857500000000000000000000000000   081216                 0000000000                                                                  000132
1020167374400013000000090339100575003                         000000006300323993780000000000000000000000000917071216          00000000630032399378000000000000000549010401504  000000000000000000000000000000000000000000000000000000000000000000000000000000000000000549000000000000000000000000000   081216                 0000000000                                                                  000133
1020167374400013000000090339100575003                         000000006300323994670000000000000000000000000917071216          00000000630032399467000000000000001337210401504  000000000000000000000000000000000000000000000000000000000000000000000000000000000000001337200000000000000000000000000   081216                 0000000000                                                                  000134
1020167374400013000000090339100575003                         000000006300323995720000000000000000000000000917071216          00000000630032399572000000000000000797610401504  000000000000000000000000000000000000000000000000000000000000000000000000000000000000000797600000000000000000000000000   081216                 0000000000                                                                  000135
1020167374400013000000090339100575003                         000000006300323995990000000000000000000000000917071216          00000000630032399599000000000000000249010400197  000000000000000000000000000000000000000000000000000000000000000000000000000000000000000249000000000000000000000000000   081216                 0000000000                                                                  000136
1020167374400013000000090339100575003                         000000006300323996290000000000000000000000000917071216          00000000630032399629000000000000000191310404375  000000000000000000000000000000000000000000000000000000000000000000000000000000000000000191300000000000000000000000000   081216                 0000000000                                                                  000137
1020167374400013000000090339100575003                         000000006300323996370000000000000000000000000917071216          00000000630032399637000000000000000361710401504  000000000000000000000000000000000000000000000000000000000000000000000000000000000000000361700000000000000000000000000   081216                 0000000000                                                                  000138
1020167374400013000000090339100575003                         0000000063003239967P0000000000000000000000000917071216          0000000063003239967P000000000000000565710401504  000000000000000000000000000000000000000000000000000000000000000000000000000000000000000565700000000000000000000000000   081216                 0000000000                                                                  000139
1020167374400013000000090339100575003                         000000006300323996960000000000000000000000000917071216          00000000630032399696000000000000000790510401504  000000000000000000000000000000000000000000000000000000000000000000000000000000000000000790500000000000000000000000000   081216                 0000000000                                                                  000140
1020167374400013000000090339100575003                         0000000063003239970P0000000000000000000000000917071216          0000000063003239970P000000000000000589003301431  000000000000000000000000000000000000000000000000000000000000000000000000000000000000000589000000000000000000000000000   081216                 0000000000                                                                  000141
1020167374400013000000090339100575003                         000000006300323997180000000000000000000000000917071216          00000000630032399718000000000000000604934106085  000000000000000000000000000000000000000000000000000000000000000000000000000000000000000604900000000000000000000000000   081216                 0000000000                                                                  000142
1020167374400013000000090339100575003                         000000006300323997340000000000000000000000000917071216          00000000630032399734000000000000000595903303160  000000000000000000000000000000000000000000000000000000000000000000000000000000000000000595900000000000000000000000000   081216                 0000000000                                                                  000143
1020167374400013000000090339100575003                         000000006300323997500000000000000000000000000917071216          00000000630032399750000000000000000764034109158  000000000000000000000000000000000000000000000000000000000000000000000000000000000000000764000000000000000000000000000   081216                 0000000000                                                                  000144
1020167374400013000000090339100575003                         0000000064003468850P0000000000000000000000000917071216          0000000064003468850P000000000000001621023700080  000000000000000000000000000000000000000000000000000000000000000000000000000000000000001621000000000000000000000000000   081216                 0000000000                                                                  000145
1020167374400013000000090339100575003                         000000006400347074660000000000000000000000000917071216          00000000640034707466000000000000000119010402519  000000000000000000000000000000000000000000000000000000000000000000000000000000000000000119000000000000000000000000000   081216                 0000000000                                                                  000146
1020167374400013000000090339100575003                         000000006400347076950000000000000000000000000917071216          00000000640034707695000000000000000180223700080  000000000000000000000000000000000000000000000000000000000000000000000000000000000000000180200000000000000000000000000   081216                 0000000000                                                                  000147
1020167374400013000000090339100575003                         000000006400347107260000000000000000000000000917071216          00000000640034710726000000000000001532500102592  000000000000000000000000000000000000000000000000000000000000000000000000000000000000001532500000000000000000000000000   081216                 0000000000                                                                  000148
1020167374400013000000090339100575003                         000000006400347107340000000000000000000000000917071216          00000000640034710734000000000000000681110401641  000000000000000000000000000000000000000000000000000000000000000000000000000000000000000681100000000000000000000000000   081216                 0000000000                                                                  000149
1020167374400013000000090339100575003                         000000006400347108310000000000000000000000000917071216          00000000640034710831000000000000001173010403696  000000000000000000000000000000000000000000000000000000000000000000000000000000000000001173000000000000000000000000000   081216                 0000000000                                                                  000150
1020167374400013000000090339100575003                         0000000064003471103P0000000000000000000000000917071216          0000000064003471103P000000000000000460010402519  000000000000000000000000000000000000000000000000000000000000000000000000000000000000000460000000000000000000000000000   081216                 0000000000                                                                  000151
1020167374400013000000090339100575003                         0000000064003471120P0000000000000000000000000917071216          0000000064003471120P000000000000000574200102995  000000000000000000000000000000000000000000000000000000000000000000000000000000000000000574200000000000000000000000000   081216                 0000000000                                                                  000152
1020167374400013000000090339100575003                         000000006400347112420000000000000000000000000917071216          00000000640034711242000000000000000098300105888  000000000000000000000000000000000000000000000000000000000000000000000000000000000000000098300000000000000000000000000   081216                 0000000000                                                                  000153
1020167374400013000000090339100575003                         000000006400347113230000000000000000000000000917071216          00000000640034711323000000000000000884400102592  000000000000000000000000000000000000000000000000000000000000000000000000000000000000000884400000000000000000000000000   081216                 0000000000                                                                  000154
1020167374400013000000090339100575003                         000000006400347113310000000000000000000000000917071216          00000000640034711331000000000000000944000102592  000000000000000000000000000000000000000000000000000000000000000000000000000000000000000944000000000000000000000000000   081216                 0000000000                                                                  000155
1020167374400013000000090339100575003                         000000006400347114120000000000000000000000000917071216          00000000640034711412000000000000000826010402519  000000000000000000000000000000000000000000000000000000000000000000000000000000000000000826000000000000000000000000000   081216                 0000000000                                                                  000156
1020167374400013000000090339100575003                         000000006400347115280000000000000000000000000917071216          00000000640034711528000000000000000611803303177  000000000000000000000000000000000000000000000000000000000000000000000000000000000000000611800000000000000000000000000   081216                 0000000000                                                                  000157
1020167374400013000000090339100575003                         000000006400347116170000000000000000000000000917071216          00000000640034711617000000000000000562010403696  000000000000000000000000000000000000000000000000000000000000000000000000000000000000000562000000000000000000000000000   081216                 0000000000                                                                  000158
1020167374400013000000090339100575003                         000000006400347116250000000000000000000000000917071216          00000000640034711625000000000000000562010403696  000000000000000000000000000000000000000000000000000000000000000000000000000000000000000562000000000000000000000000000   081216                 0000000000                                                                  000159
1020167374400013000000090339100575003                         000000006400347116330000000000000000000000000917071216          00000000640034711633000000000000001226123703442  000000000000000000000000000000000000000000000000000000000000000000000000000000000000001226100000000000000000000000000   081216                 0000000000                                                                  000160
1020167374400013000000090339100575003                         000000006400347117730000000000000000000000000917071216          00000000640034711773000000000000001179710401641  000000000000000000000000000000000000000000000000000000000000000000000000000000000000001179700000000000000000000000000   081216                 0000000000                                                                  000161
1020167374400013000000090339100575003                         000000006400347118460000000000000000000000000917071216          00000000640034711846000000000000000599010403065  000000000000000000000000000000000000000000000000000000000000000000000000000000000000000599000000000000000000000000000   081216                 0000000000                                                                  000162
1020167374400013000000090339100575003                         000000006400347119000000000000000000000000000917071216          00000000640034711900000000000000001946910400281  000000000000000000000000000000000000000000000000000000000000000000000000000000000000001946900000000000000000000000000   081216                 0000000000                                                                  000163
1020167374400013000000090339100575003                         000000006400347119860000000000000000000000000917071216          00000000640034711986000000000000000784423700428  000000000000000000000000000000000000000000000000000000000000000000000000000000000000000784400000000000000000000000000   081216                 0000000000                                                                  000164
1020167374400013000000090339100575003                         000000006400347120280000000000000000000000000917071216          00000000640034712028000000000000000829010402519  000000000000000000000000000000000000000000000000000000000000000000000000000000000000000829000000000000000000000000000   081216                 0000000000                                                                  000165
1020167374400013000000090339100575003                         000000006400347121760000000000000000000000000917071216          00000000640034712176000000000000001083710400126  000000000000000000000000000000000000000000000000000000000000000000000000000000000000001083700000000000000000000000000   081216                 0000000000                                                                  000166
1020167374400013000000090339100575003                         000000006400347122060000000000000000000000000917071216          00000000640034712206000000000000000714910403065  000000000000000000000000000000000000000000000000000000000000000000000000000000000000000714900000000000000000000000000   081216                 0000000000                                                                  000167
1020167374400013000000090339100575003                         000000006400347123110000000000000000000000000917071216          00000000640034712311000000000000000806410402519  000000000000000000000000000000000000000000000000000000000000000000000000000000000000000806400000000000000000000000000   081216                 0000000000                                                                  000168
1020167374400013000000090339100575003                         000000006400347123460000000000000000000000000917071216          00000000640034712346000000000000000615010400126  000000000000000000000000000000000000000000000000000000000000000000000000000000000000000615000000000000000000000000000   081216                 0000000000                                                                  000169
1020167374400013000000090339100575003                         000000006400347123620000000000000000000000000917071216          00000000640034712362000000000000000549310400149  000000000000000000000000000000000000000000000000000000000000000000000000000000000000000549300000000000000000000000000   081216                 0000000000                                                                  000170
1020167374400013000000090339100575003                         000000006400347123970000000000000000000000000917071216          00000000640034712397000000000000000799110400126  000000000000000000000000000000000000000000000000000000000000000000000000000000000000000799100000000000000000000000000   081216                 0000000000                                                                  000171
1020167374400013000000090339100575003                         000000006400347124190000000000000000000000000917071216          00000000640034712419000000000000000786123701591  000000000000000000000000000000000000000000000000000000000000000000000000000000000000000786100000000000000000000000000   081216                 0000000000                                                                  000172
1020167374400013000000090339100575003                         000000006400347124350000000000000000000000000917071216          00000000640034712435000000000000000857510400126  000000000000000000000000000000000000000000000000000000000000000000000000000000000000000857500000000000000000000000000   081216                 0000000000                                                                  000173
1020167374400013000000090339100575003                         000000006400347125080000000000000000000000000917071216          00000000640034712508000000000000000249010401641  000000000000000000000000000000000000000000000000000000000000000000000000000000000000000249000000000000000000000000000   081216                 0000000000                                                                  000174
1020167374400013000000090339100575003                         000000006400347125320000000000000000000000000917071216          00000000640034712532000000000000000599010401536  000000000000000000000000000000000000000000000000000000000000000000000000000000000000000599000000000000000000000000000   081216                 0000000000                                                                  000175
1020167374400013000000090339100575003                         000000006400347125670000000000000000000000000917071216          00000000640034712567000000000000000249010401641  000000000000000000000000000000000000000000000000000000000000000000000000000000000000000249000000000000000000000000000   081216                 0000000000                                                                  000176
1020167374400013000000090339100575003                         000000006400347125750000000000000000000000000917071216          00000000640034712575000000000000001696510402519  000000000000000000000000000000000000000000000000000000000000000000000000000000000000001696500000000000000000000000000   081216                 0000000000                                                                  000177
1020167374400013000000090339100575003                         000000006400347125830000000000000000000000000917071216          00000000640034712583000000000000000613210403065  000000000000000000000000000000000000000000000000000000000000000000000000000000000000000613200000000000000000000000000   081216                 0000000000                                                                  000178
1020167374400013000000090339100575003                         000000006400347126560000000000000000000000000917071216          00000000640034712656000000000000000175710400126  000000000000000000000000000000000000000000000000000000000000000000000000000000000000000175700000000000000000000000000   081216                 0000000000                                                                  000179
1020167374400013000000090339100575003                         000000006400347126720000000000000000000000000917071216          00000000640034712672000000000000000119500105751  000000000000000000000000000000000000000000000000000000000000000000000000000000000000000119500000000000000000000000000   081216                 0000000000                                                                  000180
1020167374400013000000090339100575003                         000000006400347126800000000000000000000000000917071216          00000000640034712680000000000000000849210402519  000000000000000000000000000000000000000000000000000000000000000000000000000000000000000849200000000000000000000000000   081216                 0000000000                                                                  000181
1020167374400013000000090339100575003                         000000006400347126990000000000000000000000000917071216          00000000640034712699000000000000000419734103109  000000000000000000000000000000000000000000000000000000000000000000000000000000000000000419700000000000000000000000000   081216                 0000000000                                                                  000182
1020167374400013000000090339100575003                         000000006400347127100000000000000000000000000917071216          00000000640034712710000000000000001009510403029  000000000000000000000000000000000000000000000000000000000000000000000000000000000000001009500000000000000000000000000   081216                 0000000000                                                                  000183
1020167374400013000000090339100575003                         000000006400347127290000000000000000000000000917071216          00000000640034712729000000000000000969423703477  000000000000000000000000000000000000000000000000000000000000000000000000000000000000000969400000000000000000000000000   081216                 0000000000                                                                  000184
1020167374400013000000090339100575003                         000000006400347127370000000000000000000000000917071216          00000000640034712737000000000000000516023701591  000000000000000000000000000000000000000000000000000000000000000000000000000000000000000516000000000000000000000000000   081216                 0000000000                                                                  000185
1020167374400013000000090339100575003                         000000006400347127530000000000000000000000000917071216          00000000640034712753000000000000000546410400099  000000000000000000000000000000000000000000000000000000000000000000000000000000000000000546400000000000000000000000000   081216                 0000000000                                                                  000186
1020167374400013000000090339100575003                         0000000064003471277P0000000000000000000000000917071216          0000000064003471277P000000000000000536310400099  000000000000000000000000000000000000000000000000000000000000000000000000000000000000000536300000000000000000000000000   081216                 0000000000                                                                  000187
1020167374400013000000090339100575003                         000000006400347127880000000000000000000000000917071216          00000000640034712788000000000000000687110400126  000000000000000000000000000000000000000000000000000000000000000000000000000000000000000687100000000000000000000000000   081216                 0000000000                                                                  000188
1020167374400013000000090339100575003                         000000006400347128180000000000000000000000000917071216          00000000640034712818000000000000000738010401536  000000000000000000000000000000000000000000000000000000000000000000000000000000000000000738000000000000000000000000000   081216                 0000000000                                                                  000189
1020167374400013000000090339100575003                         000000006400347128260000000000000000000000000917071216          00000000640034712826000000000000000717010401536  000000000000000000000000000000000000000000000000000000000000000000000000000000000000000717000000000000000000000000000   081216                 0000000000                                                                  000190
1020167374400013000000090339100575003                         000000006400347128340000000000000000000000000917071216          00000000640034712834000000000000000699010401536  000000000000000000000000000000000000000000000000000000000000000000000000000000000000000699000000000000000000000000000   081216                 0000000000                                                                  000191
1020167374400013000000090339100575003                         000000006400347128420000000000000000000000000917071216          00000000640034712842000000000000000804034108192  000000000000000000000000000000000000000000000000000000000000000000000000000000000000000804000000000000000000000000000   081216                 0000000000                                                                  000192
1020167374400013000000090339100575003                         000000006400347129580000000000000000000000000917071216          00000000640034712958000000000000000673110402519  000000000000000000000000000000000000000000000000000000000000000000000000000000000000000673100000000000000000000000000   081216                 0000000000                                                                  000193
1020167374400013000000090339100575003                         000000006400347129660000000000000000000000000917071216          00000000640034712966000000000000001797910402519  000000000000000000000000000000000000000000000000000000000000000000000000000000000000001797900000000000000000000000000   081216                 0000000000                                                                  000194
1020167374400013000000090339100575003                         000000006400347130400000000000000000000000000917071216          00000000640034713040000000000000000449523703477  000000000000000000000000000000000000000000000000000000000000000000000000000000000000000449500000000000000000000000000   081216                 0000000000                                                                  000195
1020167374400013000000090339100575003                         000000006400347130670000000000000000000000000917071216          00000000640034713067000000000000001199010403065  000000000000000000000000000000000000000000000000000000000000000000000000000000000000001199000000000000000000000000000   081216                 0000000000                                                                  000196
1020167374400013000000090339100575003                         000000006400347131210000000000000000000000000917071216          00000000640034713121000000000000000569900108349  000000000000000000000000000000000000000000000000000000000000000000000000000000000000000569900000000000000000000000000   081216                 0000000000                                                                  000197
1020167374400013000000090339100575003                         000000006400347131480000000000000000000000000917071216          00000000640034713148000000000000001297323701591  000000000000000000000000000000000000000000000000000000000000000000000000000000000000001297300000000000000000000000000   081216                 0000000000                                                                  000198
1020167374400013000000090339100575003                         000000006400347131800000000000000000000000000917071216          00000000640034713180000000000000000511010403065  000000000000000000000000000000000000000000000000000000000000000000000000000000000000000511000000000000000000000000000   081216                 0000000000                                                                  000199
1020167374400013000000090339100575003                         000000006400347132370000000000000000000000000917071216          00000000640034713237000000000000000249023702180  000000000000000000000000000000000000000000000000000000000000000000000000000000000000000249000000000000000000000000000   081216                 0000000000                                                                  000200
1020167374400013000000090339100575003                         000000006400347132880000000000000000000000000917071216          00000000640034713288000000000000000350023703477  000000000000000000000000000000000000000000000000000000000000000000000000000000000000000350000000000000000000000000000   081216                 0000000000                                                                  000201
1020167374400013000000090339100575003                         000000006400347132960000000000000000000000000917071216          00000000640034713296000000000000000557110403696  000000000000000000000000000000000000000000000000000000000000000000000000000000000000000557100000000000000000000000000   081216                 0000000000                                                                  000202
1020167374400013000000090339100575003                         000000006400347133180000000000000000000000000917071216          00000000640034713318000000000000000510310401641  000000000000000000000000000000000000000000000000000000000000000000000000000000000000000510300000000000000000000000000   081216                 0000000000                                                                  000203
1020167374400013000000090339100575003                         000000006400347133340000000000000000000000000917071216          00000000640034713334000000000000001562910403065  000000000000000000000000000000000000000000000000000000000000000000000000000000000000001562900000000000000000000000000   081216                 0000000000                                                                  000204
1020167374400013000000090339100575003                         000000006400347133420000000000000000000000000917071216          00000000640034713342000000000000000809210403065  000000000000000000000000000000000000000000000000000000000000000000000000000000000000000809200000000000000000000000000   081216                 0000000000                                                                  000205
1020167374400013000000090339100575003                         000000006400347133770000000000000000000000000917071216          00000000640034713377000000000000000264310401536  000000000000000000000000000000000000000000000000000000000000000000000000000000000000000264300000000000000000000000000   081216                 0000000000                                                                  000206
1020167374400013000000090339100575003                         000000006400347133850000000000000000000000000917071216          00000000640034713385000000000000000347810402519  000000000000000000000000000000000000000000000000000000000000000000000000000000000000000347800000000000000000000000000   081216                 0000000000                                                                  000207
1020167374400013000000090339100575003                         000000006400347134150000000000000000000000000917071216          00000000640034713415000000000000000349010402519  000000000000000000000000000000000000000000000000000000000000000000000000000000000000000349000000000000000000000000000   081216                 0000000000                                                                  000208
1020167374400013000000090339100575003                         000000006400347134310000000000000000000000000917071216          00000000640034713431000000000000000299510403065  000000000000000000000000000000000000000000000000000000000000000000000000000000000000000299500000000000000000000000000   081216                 0000000000                                                                  000209
1020167374400013000000090339100575003                         0000000064003471344P0000000000000000000000000917071216          0000000064003471344P000000000000000349010403065  000000000000000000000000000000000000000000000000000000000000000000000000000000000000000349000000000000000000000000000   081216                 0000000000                                                                  000210
1020167374400013000000090339100575003                         000000006400347134580000000000000000000000000917071216          00000000640034713458000000000000000608310403029  000000000000000000000000000000000000000000000000000000000000000000000000000000000000000608300000000000000000000000000   081216                 0000000000                                                                  000211
1020167374400013000000090339100575003                         000000006400347134660000000000000000000000000917071216          00000000640034713466000000000000000608010403029  000000000000000000000000000000000000000000000000000000000000000000000000000000000000000608000000000000000000000000000   081216                 0000000000                                                                  000212
1020167374400013000000090339100575003                         000000006400347134740000000000000000000000000917071216          00000000640034713474000000000000000839623700428  000000000000000000000000000000000000000000000000000000000000000000000000000000000000000839600000000000000000000000000   081216                 0000000000                                                                  000213
1020167374400013000000090339100575003                         000000006400347135040000000000000000000000000917071216          00000000640034713504000000000000000831510403065  000000000000000000000000000000000000000000000000000000000000000000000000000000000000000831500000000000000000000000000   081216                 0000000000                                                                  000214
1020167374400013000000090339100575003                         000000006400347135550000000000000000000000000917071216          00000000640034713555000000000000000769110403029  000000000000000000000000000000000000000000000000000000000000000000000000000000000000000769100000000000000000000000000   081216                 0000000000                                                                  000215
1020167374400013000000090339100575003                         0000000064003471358P0000000000000000000000000917071216          0000000064003471358P000000000000000475510400126  000000000000000000000000000000000000000000000000000000000000000000000000000000000000000475500000000000000000000000000   081216                 0000000000                                                                  000216
1020167374400013000000090339100575003                         000000006400347135980000000000000000000000000917071216          00000000640034713598000000000000000429010401641  000000000000000000000000000000000000000000000000000000000000000000000000000000000000000429000000000000000000000000000   081216                 0000000000                                                                  000217
1020167374400013000000090339100575003                         000000006400347136010000000000000000000000000917071216          00000000640034713601000000000000000442010401641  000000000000000000000000000000000000000000000000000000000000000000000000000000000000000442000000000000000000000000000   081216                 0000000000                                                                  000218
1020167374400013000000090339100575003                         000000006400347136600000000000000000000000000917071216          00000000640034713660000000000000000628010400126  000000000000000000000000000000000000000000000000000000000000000000000000000000000000000628000000000000000000000000000   081216                 0000000000                                                                  000219
1020167374400013000000090339100575003                         000000006400347136790000000000000000000000000917071216          00000000640034713679000000000000000607610403696  000000000000000000000000000000000000000000000000000000000000000000000000000000000000000607600000000000000000000000000   081216                 0000000000                                                                  000220
1020167374400013000000090339100575003                         000000006400347136870000000000000000000000000917071216          00000000640034713687000000000000000614010403696  000000000000000000000000000000000000000000000000000000000000000000000000000000000000000614000000000000000000000000000   081216                 0000000000                                                                  000221
1020167374400013000000090339100575003                         000000006400347136950000000000000000000000000917071216          00000000640034713695000000000000000763634106699  000000000000000000000000000000000000000000000000000000000000000000000000000000000000000763600000000000000000000000000   081216                 0000000000                                                                  000222
1020167374400013000000090339100575003                         000000006400347137090000000000000000000000000917071216          00000000640034713709000000000000000626910403065  000000000000000000000000000000000000000000000000000000000000000000000000000000000000000626900000000000000000000000000   081216                 0000000000                                                                  000223
1020167374400013000000090339100575003                         000000006400347137680000000000000000000000000917071216          00000000640034713768000000000000000667900103195  000000000000000000000000000000000000000000000000000000000000000000000000000000000000000667900000000000000000000000000   081216                 0000000000                                                                  000224
1020167374400013000000090339100575003                         000000006400347137760000000000000000000000000917071216          00000000640034713776000000000000000856023701591  000000000000000000000000000000000000000000000000000000000000000000000000000000000000000856000000000000000000000000000   081216                 0000000000                                                                  000225
1020167374400013000000090339100575003                         000000006400347137840000000000000000000000000917071216          00000000640034713784000000000000000726510400126  000000000000000000000000000000000000000000000000000000000000000000000000000000000000000726500000000000000000000000000   081216                 0000000000                                                                  000226
1020167374400013000000090339100575003                         000000006400347138730000000000000000000000000917071216          00000000640034713873000000000000000608200102995  000000000000000000000000000000000000000000000000000000000000000000000000000000000000000608200000000000000000000000000   081216                 0000000000                                                                  000227
1020167374400013000000090339100575003                         000000007100304463130000000000000000000000000917071216          00000000710030446313000000000000000532500400309  000000000000000000000000000000000000000000000000000000000000000000000000000000000000000532500000000000000000000000000   081216                 0000000000                                                                  000228
1020167374400013000000090339100575003                         000000007100304470690000000000000000000000000917071216          00000000710030447069000000000000000802410400678  000000000000000000000000000000000000000000000000000000000000000000000000000000000000000802400000000000000000000000000   081216                 0000000000                                                                  000229
1020167374400013000000090339100575003                         000000007100304471580000000000000000000000000917071216          00000000710030447158000000000000000599000103613  000000000000000000000000000000000000000000000000000000000000000000000000000000000000000599000000000000000000000000000   081216                 0000000000                                                                  000230
1020167374400013000000090339100575003                         000000007100304471740000000000000000000000000917071216          00000000710030447174000000000000001532610402348  000000000000000000000000000000000000000000000000000000000000000000000000000000000000001532600000000000000000000000000   081216                 0000000000                                                                  000231
1020167374400013000000090339100575003                         000000007100304471820000000000000000000000000917071216          00000000710030447182000000000000000649034109324  000000000000000000000000000000000000000000000000000000000000000000000000000000000000000649000000000000000000000000000   081216                 0000000000                                                                  000232
1020167374400013000000090339100575003                         000000007100304472470000000000000000000000000917071216          00000000710030447247000000000000000613410400047  000000000000000000000000000000000000000000000000000000000000000000000000000000000000000613400000000000000000000000000   081216                 0000000000                                                                  000233
1020167374400013000000090339100575003                         000000007100304472550000000000000000000000000917071216          00000000710030447255000000000000001646334105759  000000000000000000000000000000000000000000000000000000000000000000000000000000000000001646300000000000000000000000000   081216                 0000000000                                                                  000234
1020167374400013000000090339100575003                         000000007100304472630000000000000000000000000917071216          00000000710030447263000000000000000559334109246  000000000000000000000000000000000000000000000000000000000000000000000000000000000000000559300000000000000000000000000   081216                 0000000000                                                                  000235
1020167374400013000000090339100575003                         000000007100304472710000000000000000000000000917071216          00000000710030447271000000000000001586710401030  000000000000000000000000000000000000000000000000000000000000000000000000000000000000001586700000000000000000000000000   081216                 0000000000                                                                  000236
1020167374400013000000090339100575003                         000000007100304473010000000000000000000000000917071216          00000000710030447301000000000000000453410401028  000000000000000000000000000000000000000000000000000000000000000000000000000000000000000453400000000000000000000000000   081216                 0000000000                                                                  000237
1020167374400013000000090339100575003                         0000000071003044731P0000000000000000000000000917071216          0000000071003044731P000000000000000212510400048  000000000000000000000000000000000000000000000000000000000000000000000000000000000000000212500000000000000000000000000   081216                 0000000000                                                                  000238
1020167374400013000000090339100575003                         000000007100304473280000000000000000000000000917071216          00000000710030447328000000000000001308123700291  000000000000000000000000000000000000000000000000000000000000000000000000000000000000001308100000000000000000000000000   081216                 0000000000                                                                  000239
1020167374400013000000090339100575003                         000000007100304473360000000000000000000000000917071216          00000000710030447336000000000000018852534103175  000000000000000000000000000000000000000000000000000000000000000000000000000000000000018852500000000000000000000000000   081216                 0000000000                                                                  000240
1020167374400013000000090339100575003                         000000007100304473440000000000000000000000000917071216          00000000710030447344000000000000000749034102483  000000000000000000000000000000000000000000000000000000000000000000000000000000000000000749000000000000000000000000000   081216                 0000000000                                                                  000241
1020167374400013000000090339100575003                         000000007100304473520000000000000000000000000917071216          00000000710030447352000000000000002735210404759  000000000000000000000000000000000000000000000000000000000000000000000000000000000000002735200000000000000000000000000   081216                 0000000000                                                                  000242
1020167374400013000000090339100575003                         000000007100304474090000000000000000000000000917071216          00000000710030447409000000000000000779400104844  000000000000000000000000000000000000000000000000000000000000000000000000000000000000000779400000000000000000000000000   081216                 0000000000                                                                  000243
1020167374400013000000090339100575003                         000000007100304474170000000000000000000000000917071216          00000000710030447417000000000000001349010401028  000000000000000000000000000000000000000000000000000000000000000000000000000000000000001349000000000000000000000000000   081216                 0000000000                                                                  000244
1020167374400013000000090339100575003                         000000007100304474250000000000000000000000000917071216          00000000710030447425000000000000000829010401028  000000000000000000000000000000000000000000000000000000000000000000000000000000000000000829000000000000000000000000000   081216                 0000000000                                                                  000245
1020167374400013000000090339100575003                         000000007200229817010000000000000000000000000917071216          00000000720022981701000000000000000554323703201  000000000000000000000000000000000000000000000000000000000000000000000000000000000000000554300000000000000000000000000   081216                 0000000000                                                                  000246
1020167374400013000000090339100575003                         000000007200229817790000000000000000000000000917071216          00000000720022981779000000000000000938603304047  000000000000000000000000000000000000000000000000000000000000000000000000000000000000000938600000000000000000000000000   081216                 0000000000                                                                  000247
1020167374400013000000090339100575003                         000000007200229817870000000000000000000000000917071216          00000000720022981787000000000000001663023701606  000000000000000000000000000000000000000000000000000000000000000000000000000000000000001663000000000000000000000000000   081216                 0000000000                                                                  000248
1020167374400013000000090339100575003                         000000007200229817950000000000000000000000000917071216          00000000720022981795000000000000000729003303757  000000000000000000000000000000000000000000000000000000000000000000000000000000000000000729000000000000000000000000000   081216                 0000000000                                                                  000249
